{
  "contractName": "Liars",
  "abi": [
    {
      "inputs": [],
      "stateMutability": "nonpayable",
      "type": "constructor"
    },
    {
      "anonymous": false,
      "inputs": [
        {
          "indexed": false,
          "internalType": "uint256",
          "name": "_bidFaceValue",
          "type": "uint256"
        },
        {
          "indexed": false,
          "internalType": "uint8",
          "name": "_bidNumDice",
          "type": "uint8"
        },
        {
          "indexed": false,
          "internalType": "uint8",
          "name": "_newNumDice",
          "type": "uint8"
        },
        {
          "indexed": false,
          "internalType": "uint256",
          "name": "_newFaceValue",
          "type": "uint256"
        }
      ],
      "name": "BidInfo",
      "type": "event"
    },
    {
      "anonymous": false,
      "inputs": [
        {
          "indexed": true,
          "internalType": "address",
          "name": "_from",
          "type": "address"
        },
        {
          "indexed": false,
          "internalType": "uint256",
          "name": "value",
          "type": "uint256"
        }
      ],
      "name": "WithDrewMoney",
      "type": "event"
    },
    {
      "inputs": [],
      "name": "numActivePlayers",
      "outputs": [
        {
          "internalType": "uint8",
          "name": "",
          "type": "uint8"
        }
      ],
      "stateMutability": "view",
      "type": "function",
      "constant": true
    },
    {
      "inputs": [],
      "name": "numPaid",
      "outputs": [
        {
          "internalType": "uint8",
          "name": "",
          "type": "uint8"
        }
      ],
      "stateMutability": "view",
      "type": "function",
      "constant": true
    },
    {
      "inputs": [],
      "name": "numPlayers",
      "outputs": [
        {
          "internalType": "uint8",
          "name": "",
          "type": "uint8"
        }
      ],
      "stateMutability": "view",
      "type": "function",
      "constant": true
    },
    {
      "inputs": [],
      "name": "numSetDice",
      "outputs": [
        {
          "internalType": "uint8",
          "name": "",
          "type": "uint8"
        }
      ],
      "stateMutability": "view",
      "type": "function",
      "constant": true
    },
    {
      "stateMutability": "payable",
      "type": "receive",
      "payable": true
    },
    {
      "inputs": [
        {
          "internalType": "uint8",
          "name": "no_players",
          "type": "uint8"
        },
        {
          "internalType": "uint8",
          "name": "no_dice",
          "type": "uint8"
        }
      ],
      "name": "setPD",
      "outputs": [],
      "stateMutability": "nonpayable",
      "type": "function"
    },
    {
      "inputs": [],
      "name": "Challenge",
      "outputs": [],
      "stateMutability": "nonpayable",
      "type": "function"
    },
    {
      "inputs": [
        {
          "internalType": "uint8",
          "name": "numDice",
          "type": "uint8"
        },
        {
          "internalType": "uint8",
          "name": "faceValue",
          "type": "uint8"
        }
      ],
      "name": "Bet",
      "outputs": [],
      "stateMutability": "nonpayable",
      "type": "function"
    },
    {
      "inputs": [],
      "name": "DiceShuffle",
      "outputs": [],
      "stateMutability": "nonpayable",
      "type": "function"
    },
    {
      "inputs": [],
      "name": "getRolledDice",
      "outputs": [
        {
          "internalType": "uint256[]",
          "name": "",
          "type": "uint256[]"
        }
      ],
      "stateMutability": "view",
      "type": "function",
      "constant": true
    },
    {
      "inputs": [],
      "name": "initialpay",
      "outputs": [],
      "stateMutability": "payable",
      "type": "function",
      "payable": true
    }
  ],
  "bytecode": "0x608060405260056000806101000a81548160ff021916908360ff16021790555060008060016101000a81548160ff021916908360ff16021790555033600060026101000a81548173ffffffffffffffffffffffffffffffffffffffff021916908373ffffffffffffffffffffffffffffffffffffffff1602179055506002600060166101000a81548160ff021916908360ff16021790555060008060176101000a81548160ff021916908360ff16021790555060008060186101000a81548160ff021916908360ff1602179055506000600260006101000a81548160ff021916908360ff1602179055503480156100f557600080fd5b5060008060166101000a81548160ff021916908360ff16021790555060008060176101000a81548160ff021916908360ff160217905550600180819055506000600660006101000a81548160ff0219169083600581111561015257fe5b021790555060008060196101000a81548160ff021916908360ff1602179055506000600360000160006101000a81548160ff021916908360ff1602179055506000600360000160016101000a81548160ff021916908360ff16021790555060ff600260016101000a81548160ff021916908360ff1602179055506110ab806101db6000396000f3fe6080604052600436106100955760003560e01c8063a0f4a9a911610059578063a0f4a9a9146101aa578063aa268fd7146101c1578063e0fdd709146101cb578063f76dc438146101f9578063fb882b10146102655761009c565b80632bdcc167146100a15780632da3db2a146100cf5780636287140e146100e6578063703d45a01461013157806397b2f5561461017c5761009c565b3661009c57005b600080fd5b3480156100ad57600080fd5b506100b6610293565b604051808260ff16815260200191505060405180910390f35b3480156100db57600080fd5b506100e46102a6565b005b3480156100f257600080fd5b5061012f6004803603604081101561010957600080fd5b81019080803560ff169060200190929190803560ff1690602001909291905050506104d9565b005b34801561013d57600080fd5b5061017a6004803603604081101561015457600080fd5b81019080803560ff169060200190929190803560ff169060200190929190505050610512565b005b34801561018857600080fd5b506101916105bf565b604051808260ff16815260200191505060405180910390f35b3480156101b657600080fd5b506101bf6105d2565b005b6101c9610b6a565b005b3480156101d757600080fd5b506101e0610ef4565b604051808260ff16815260200191505060405180910390f35b34801561020557600080fd5b5061020e610f05565b6040518080602001828103825283818151815260200191508051906020019060200280838360005b83811015610251578082015181840152602081019050610236565b505050509050019250505060405180910390f35b34801561027157600080fd5b5061027a610f9d565b604051808260ff16815260200191505060405180910390f35b600060019054906101000a900460ff1681565b60005b6004805490508160ff1610156104d65760005b60008054906101000a900460ff1660ff168160ff1610156104c8576005600060048460ff16815481106102eb57fe5b9060005260206000200160009054906101000a900473ffffffffffffffffffffffffffffffffffffffff1673ffffffffffffffffffffffffffffffffffffffff1673ffffffffffffffffffffffffffffffffffffffff16815260200190815260200160002060000160029054906101000a900460ff1660ff168160ff16111561040d5760ff6005600060048560ff168154811061038457fe5b9060005260206000200160009054906101000a900473ffffffffffffffffffffffffffffffffffffffff1673ffffffffffffffffffffffffffffffffffffffff1673ffffffffffffffffffffffffffffffffffffffff1681526020019081526020016000206002018260ff16815481106103fa57fe5b90600052602060002001819055506104bb565b60016006610419610fb0565b8161042057fe5b06016005600060048560ff168154811061043657fe5b9060005260206000200160009054906101000a900473ffffffffffffffffffffffffffffffffffffffff1673ffffffffffffffffffffffffffffffffffffffff1673ffffffffffffffffffffffffffffffffffffffff1681526020019081526020016000206002018260ff16815481106104ac57fe5b90600052602060002001819055505b80806001019150506102bc565b5080806001019150506102a9565b50565b81600060166101000a81548160ff021916908360ff160217905550806000806101000a81548160ff021916908360ff1602179055505050565b81600360000160016101000a81548160ff021916908360ff16021790555080600360000160006101000a81548160ff021916908360ff160217905550600560003373ffffffffffffffffffffffffffffffffffffffff1673ffffffffffffffffffffffffffffffffffffffff16815260200190815260200160002060000160049054906101000a900460ff16600360000160026101000a81548160ff021916908360ff1602179055505050565b600060169054906101000a900460ff1681565b60006004600360000160029054906101000a900460ff1660ff16815481106105f657fe5b9060005260206000200160009054906101000a900473ffffffffffffffffffffffffffffffffffffffff1690506000806000600360000160009054906101000a900460ff169050600092505b6004805490508360ff1610156107a05760005b6005600060048660ff168154811061066957fe5b9060005260206000200160009054906101000a900473ffffffffffffffffffffffffffffffffffffffff1673ffffffffffffffffffffffffffffffffffffffff1673ffffffffffffffffffffffffffffffffffffffff168152602001908152602001600020600201805490508160ff161015610792578160ff166005600060048760ff16815481106106f757fe5b9060005260206000200160009054906101000a900473ffffffffffffffffffffffffffffffffffffffff1673ffffffffffffffffffffffffffffffffffffffff1673ffffffffffffffffffffffffffffffffffffffff1681526020019081526020016000206002018260ff168154811061076d57fe5b90600052602060002001541415610785576001830192505b8080600101915050610655565b508280600101935050610642565b600360000160019054906101000a900460ff1660ff168261ffff161061099457600560003373ffffffffffffffffffffffffffffffffffffffff1673ffffffffffffffffffffffffffffffffffffffff16815260200190815260200160002060000160029054906101000a900460ff16600560003373ffffffffffffffffffffffffffffffffffffffff1673ffffffffffffffffffffffffffffffffffffffff16815260200190815260200160002060000160036101000a81548160ff021916908360ff1602179055506001600560003373ffffffffffffffffffffffffffffffffffffffff1673ffffffffffffffffffffffffffffffffffffffff16815260200190815260200160002060000160028282829054906101000a900460ff160392506101000a81548160ff021916908360ff1602179055506000600560003373ffffffffffffffffffffffffffffffffffffffff1673ffffffffffffffffffffffffffffffffffffffff16815260200190815260200160002060000160029054906101000a900460ff1660ff16141561098f576000600560003373ffffffffffffffffffffffffffffffffffffffff1673ffffffffffffffffffffffffffffffffffffffff16815260200190815260200160002060000160016101000a81548160ff0219169083151502179055505b610b64565b600560008573ffffffffffffffffffffffffffffffffffffffff1673ffffffffffffffffffffffffffffffffffffffff16815260200190815260200160002060000160029054906101000a900460ff16600560008673ffffffffffffffffffffffffffffffffffffffff1673ffffffffffffffffffffffffffffffffffffffff16815260200190815260200160002060000160036101000a81548160ff021916908360ff1602179055506001600560008673ffffffffffffffffffffffffffffffffffffffff1673ffffffffffffffffffffffffffffffffffffffff16815260200190815260200160002060000160028282829054906101000a900460ff160392506101000a81548160ff021916908360ff1602179055506000600560008673ffffffffffffffffffffffffffffffffffffffff1673ffffffffffffffffffffffffffffffffffffffff16815260200190815260200160002060000160029054906101000a900460ff1660ff161415610b63576000600560008673ffffffffffffffffffffffffffffffffffffffff1673ffffffffffffffffffffffffffffffffffffffff16815260200190815260200160002060000160016101000a81548160ff0219169083151502179055505b5b50505050565b60001515600560003373ffffffffffffffffffffffffffffffffffffffff1673ffffffffffffffffffffffffffffffffffffffff16815260200190815260200160002060000160009054906101000a900460ff16151514610c33576040517f08c379a00000000000000000000000000000000000000000000000000000000081526004018080602001828103825260178152602001807f416c7265616479206a6f696e6564207468652067616d6500000000000000000081525060200191505060405180910390fd5b600154341015610c8e576040517f08c379a00000000000000000000000000000000000000000000000000000000081526004018080602001828103825260228152602001806110546022913960400191505060405180910390fd5b6000600560003373ffffffffffffffffffffffffffffffffffffffff1673ffffffffffffffffffffffffffffffffffffffff16815260200190815260200160002090506004339080600181540180825580915050600190039060005260206000200160009091909190916101000a81548173ffffffffffffffffffffffffffffffffffffffff021916908373ffffffffffffffffffffffffffffffffffffffff16021790555060018160000160006101000a81548160ff02191690831515021790555060018160000160016101000a81548160ff02191690831515021790555060008054906101000a900460ff168160000160026101000a81548160ff021916908360ff16021790555060008054906101000a900460ff168160000160036101000a81548160ff021916908360ff160217905550600081600201805490501415610e425760008054906101000a900460ff1660ff1667ffffffffffffffff81118015610df957600080fd5b50604051908082528060200260200182016040528015610e285781602001602082028036833780820191505090505b50816002019080519060200190610e40929190610fe9565b505b6001600480549050038160000160046101000a81548160ff021916908360ff1602179055506001600060178282829054906101000a900460ff160192506101000a81548160ff021916908360ff160217905550600154341115610ead57600154340381600101819055505b600060169054906101000a900460ff1660ff166004805490501415610ef1576001600660006101000a81548160ff02191690836005811115610eeb57fe5b02179055505b50565b60008054906101000a900460ff1681565b6060600560003373ffffffffffffffffffffffffffffffffffffffff1673ffffffffffffffffffffffffffffffffffffffff168152602001908152602001600020600201805480602002602001604051908101604052809291908181526020018280548015610f9357602002820191906000526020600020905b815481526020019060010190808311610f7f575b5050505050905090565b600060179054906101000a900460ff1681565b6000444260405160200180838152602001828152602001925050506040516020818303038152906040528051906020012060001c905090565b828054828255906000526020600020908101928215611025579160200282015b82811115611024578251825591602001919060010190611009565b5b5090506110329190611036565b5090565b5b8082111561104f576000816000905550600101611037565b509056fe4e6f7420656e6f756768206d6f6e65792073656e7420746f206a6f696e2067616d65a2646970667358221220392182c63b69c7dacd90fb0e6b78a0d6e499371da92724ab552edd3edf4b1b7964736f6c63430007010033",
  "immutableReferences": {},
  "source": "// SPDX-License-Identifier: MIT\npragma solidity >=0.4.22 <0.8.0;\n\n/// @title Contract for Liars Dice single hand version of the game\n\ncontract Liars {\n\n    /// @dev number of dice given initially per player\n    uint8 public numSetDice = 5;\n    uint8 public numPaid = 0;\n    enum Stages\n    {\n        initial,\n        roll,\n        bid,\n        bid_challenge,\n        challenge,\n        endGame\n    }\n\n\n    /// @dev player bids by specifying the face value  and the number of dice with that face  value\n    struct bidInfo {\n        uint8 faceValue;\n        uint8 numDice;\n        uint8 playerPos;\n    }\n\n    /// @dev  exists: used to see if player joined the game status will be true till he withdraws any balance owed to him\n    /// @dev  inGame: used to see if player lost all his dice and out of the game\n    /// @dev  numDice: number of dice player currently posses\n    /// @dev  balance: player account balance in wei\n    /// @dev  concealedRollFaces: player's roll face values in current round for each of his dice as hash(before challenged)\n    /// @dev  revealedRollFaces: player's roll face values in current round for each of his dice(after challenge)\n  \n    struct PlayerInfo {\n         bool exists;\n         bool inGame;\n         uint8 numDice;\n         uint8 prevNumDice;\n         uint8 playerPos;    \n         uint256 balance; \n         uint256 [] RollFaces;\n    }\n\n    /// @dev All the money from will be tranfered to this account.\n    address payable deployer = msg.sender;\n\n    /// @dev number of players that need to be join to start the game\n    uint8 public numPlayers =2;\n\n    /// @dev number of players that are still in the game\n    uint8 public numActivePlayers=0;\n\n    /// @dev current round number\n    uint8  numRound=0;\n    uint8  turnOfPlayer;\n\n    /// @dev the amount each player has to pay to play the game.\n    uint256  gameCost;\n\n    uint8 callCount=0;\n    /// @dev Front end app shows this by concatenating with string player (instead of address show as player 1, player 2 etc)\n    uint8  winnerPlayerPos;\n    bidInfo currentBid;\n\n    /// @dev players list player at pos 0 will strat the first bid and turns go in clock wise direction.\n    address [] playerList;\n\n    /// @dev Info associated with players for all players \n    mapping(address => PlayerInfo) players;\n\n    /// @dev Current stage of the game, fron end apps should call appropriate functions based on stage and display \n    /// relavent info to players like showing other players dice after challenge, Ask users to roll, bid/challenge\n    /// (in addition to getting the turn info)\n    Stages stage;\n\n\n    /// @dev stores the number of dice with that face value, updated after getting unHashed face value from each player\n    mapping(uint256 => uint8)rollFaceValues;\n\n    event WithDrewMoney(\n        address indexed _from,\n        uint256 value\n\n    );\n\n     event BidInfo(\n        uint256 _bidFaceValue,\n        uint8 _bidNumDice,\n        uint8 _newNumDice,\n        uint256 _newFaceValue\n    );\n\n   \n    /// @notice Constructor initialize default values\n    constructor ()   {\n        numPlayers = 0;\n\n        numActivePlayers = 0;\n        gameCost = 1;\n\n        stage = Stages.initial;\n        turnOfPlayer = 0;\n        currentBid.faceValue = 0;\n        currentBid.numDice = 0;\n        winnerPlayerPos = 255;\n\n    }\n\n    function setPD(uint8 no_players, uint8 no_dice) public {\n        numPlayers = no_players;\n        numSetDice = no_dice;\n    }\n\n    function updateTurn()  internal returns(uint8) {\n        if( numActivePlayers == 1){\n            turnOfPlayer = 255;\n            return turnOfPlayer;\n        }\n        uint8 origTurn = turnOfPlayer;\n        turnOfPlayer += 1;\n        if(turnOfPlayer >= numPlayers){\n           turnOfPlayer = 0; \n        }\n        if(turnOfPlayer == origTurn){\n           turnOfPlayer = 255; \n        }\n        while(playerList[turnOfPlayer] == address(0)){\n            turnOfPlayer += 1;\n\n            if (turnOfPlayer >= numPlayers){\n                turnOfPlayer = 0;\n            }\n            if(turnOfPlayer == origTurn){\n               turnOfPlayer = 255; \n               break;\n            }\n        }\n        \n        return turnOfPlayer;\n    }\n    function random() private view returns(uint){\n        return uint(keccak256(abi.encodePacked(block.difficulty, block.timestamp)));\n    }\n\n    function Challenge() public {\n        address challengedplayer = playerList[currentBid.playerPos];\n        uint8 j = 0;\n        uint16 facecount = 0;\n        uint8 face = currentBid.faceValue;\n        for( j =0; j<playerList.length; j++){\n            uint8 i = 0;\n            for(i = 0; i<players[playerList[j]].RollFaces.length; i++){\n                if(players[playerList[j]].RollFaces[i]==face)\n                    facecount += 1;\n            }\n        }\n        if(facecount >= currentBid.numDice){\n            players[msg.sender].prevNumDice = players[msg.sender].numDice;\n            players[msg.sender].numDice -= 1; \n            if(players[msg.sender].numDice == 0){\n                players[msg.sender].inGame = false;\n            }\n        }\n        else{\n            players[challengedplayer].prevNumDice = players[challengedplayer].numDice;\n            players[challengedplayer].numDice -= 1; \n            if(players[challengedplayer].numDice == 0){\n                players[challengedplayer].inGame = false;\n            }\n        }\n\n    }\n\n    function Bet(uint8 numDice, uint8 faceValue) public {\n        currentBid.numDice = numDice;\n        currentBid.faceValue = faceValue;\n        currentBid.playerPos = players[msg.sender].playerPos;\n    }\n\n    function DiceShuffle() public {\n        uint8 j = 0;\n        for( j = 0; j<playerList.length;j++){\n            uint8 i = 0;\n            for(i = 0; i < numSetDice; i++){\n                if(i>players[playerList[j]].numDice){\n                    players[playerList[j]].RollFaces[i] = 255 ;\n                }\n                else{\n                    players[playerList[j]].RollFaces[i] = (random()%6)+1; //Random Generator\n                }\n            }\n        }\n    }\n    \n    function getRolledDice() public view returns(uint256 [] memory) {\n        return players[msg.sender].RollFaces;\n    }\n\n    function initialpay() public payable {\n        require(players[msg.sender].exists == false, \"Already joined the game\");\n        require(msg.value >= gameCost, \"Not enough money sent to join game\");\n        PlayerInfo storage info = players[msg.sender];\n        playerList.push(msg.sender);\n        info.exists = true;\n        info.inGame = true;\n        info.numDice = numSetDice;\n        info.prevNumDice = numSetDice;\n\n        if (info.RollFaces.length == 0){\n            info.RollFaces = new uint256 [](numSetDice);\n        }\n        info.playerPos = (uint8)(playerList.length) -1;\n        numActivePlayers +=1;\n\n        if(msg.value > gameCost) {\n            info.balance = msg.value - gameCost;\n        }\n        if(playerList.length == numPlayers){\n            stage = Stages.roll;\n        }\n    }\n    /// @notice  Fallback function to receive any transfers\n    receive() external payable {     \n    }\n\n    function applyGameRules() internal {\n         address loser;\n         uint8 loserPos;\n         uint8 numBidFaceFaluesInRoll = rollFaceValues[currentBid.faceValue];\n\n         /// one is wildcard and count towards current bid face value. Do that if bid is not on wildcard value.\n         if (currentBid.faceValue != 1) {\n            numBidFaceFaluesInRoll += rollFaceValues[1]; \n         }\n         /// if we don't have atleast the current bid number of dices then bidder is loser\n         if(numBidFaceFaluesInRoll < currentBid.numDice){\n             loser = playerList[currentBid.playerPos];\n             loserPos = currentBid.playerPos;\n             winnerPlayerPos = turnOfPlayer;\n         }else {\n           loser = playerList[turnOfPlayer];\n           loserPos = turnOfPlayer;\n           winnerPlayerPos = currentBid.playerPos;\n         }\n         players[loser].prevNumDice = players[loser].numDice;\n         players[loser].numDice -= 1;\n         numRound +=1;\n\n         if(players[loser].numDice == 0){\n            players[loser].inGame = false;\n            // nullify this player so updateTurn will go to validate player\n            playerList[players[loser].playerPos] == address(0); \n            numActivePlayers -=1;\n            updateTurn();\n         }else {\n             turnOfPlayer = loserPos; //loser still in game he starts the next round\n         }\n         \n    }\n    \n}",
  "sourcePath": "/home/shaik/BC/dapp/contracts/Liars.sol",
  "compiler": {
    "name": "solc",
    "version": "0.7.1+commit.f4a555be.Emscripten.clang"
  },
  "schemaVersion": "3.2.4",
  "updatedAt": "2020-10-11T02:14:27.630Z",
  "networkType": "ethereum",
  "devdoc": {
    "kind": "dev",
    "methods": {},
    "stateVariables": {
      "deployer": {
        "details": "All the money from will be tranfered to this account."
      },
      "gameCost": {
        "details": "the amount each player has to pay to play the game."
      },
      "numActivePlayers": {
        "details": "number of players that are still in the game"
      },
      "numPlayers": {
        "details": "number of players that need to be join to start the game"
      },
      "numRound": {
        "details": "current round number"
      },
      "numSetDice": {
        "details": "number of dice given initially per player"
      },
      "playerList": {
        "details": "players list player at pos 0 will strat the first bid and turns go in clock wise direction."
      },
      "players": {
        "details": "Info associated with players for all players "
      },
      "rollFaceValues": {
        "details": "stores the number of dice with that face value, updated after getting unHashed face value from each player"
      },
      "stage": {
        "details": "Current stage of the game, fron end apps should call appropriate functions based on stage and display  relavent info to players like showing other players dice after challenge, Ask users to roll, bid/challenge (in addition to getting the turn info)"
      },
      "winnerPlayerPos": {
        "details": "Front end app shows this by concatenating with string player (instead of address show as player 1, player 2 etc)"
      }
    },
    "title": "Contract for Liars Dice single hand version of the game",
    "version": 1
  },
  "userdoc": {
    "kind": "user",
    "methods": {
      "constructor": {
        "notice": "Constructor initialize default values"
      }
    },
    "version": 1
  }
}