{
  "contractName": "Liars",
  "abi": [
    {
      "inputs": [],
      "stateMutability": "nonpayable",
      "type": "constructor"
    },
    {
      "anonymous": false,
      "inputs": [
        {
          "indexed": false,
          "internalType": "uint256",
          "name": "_bidFaceValue",
          "type": "uint256"
        },
        {
          "indexed": false,
          "internalType": "uint8",
          "name": "_bidNumDice",
          "type": "uint8"
        },
        {
          "indexed": false,
          "internalType": "uint8",
          "name": "_newNumDice",
          "type": "uint8"
        },
        {
          "indexed": false,
          "internalType": "uint256",
          "name": "_newFaceValue",
          "type": "uint256"
        }
      ],
      "name": "BidInfo",
      "type": "event"
    },
    {
      "anonymous": false,
      "inputs": [
        {
          "indexed": true,
          "internalType": "address",
          "name": "_from",
          "type": "address"
        },
        {
          "indexed": false,
          "internalType": "bytes32",
          "name": "_value1",
          "type": "bytes32"
        },
        {
          "indexed": false,
          "internalType": "bytes32",
          "name": "_value2",
          "type": "bytes32"
        }
      ],
      "name": "RecvHashedRoll",
      "type": "event"
    },
    {
      "anonymous": false,
      "inputs": [
        {
          "indexed": true,
          "internalType": "address",
          "name": "_from",
          "type": "address"
        },
        {
          "indexed": false,
          "internalType": "uint256",
          "name": "_value",
          "type": "uint256"
        },
        {
          "indexed": false,
          "internalType": "uint256",
          "name": "_secret",
          "type": "uint256"
        }
      ],
      "name": "SendNonHashedRoll",
      "type": "event"
    },
    {
      "anonymous": false,
      "inputs": [
        {
          "indexed": true,
          "internalType": "address",
          "name": "_from",
          "type": "address"
        },
        {
          "indexed": false,
          "internalType": "uint256",
          "name": "value",
          "type": "uint256"
        }
      ],
      "name": "WithDrewMoney",
      "type": "event"
    },
    {
      "inputs": [],
      "name": "numActivePlayers",
      "outputs": [
        {
          "internalType": "uint8",
          "name": "",
          "type": "uint8"
        }
      ],
      "stateMutability": "view",
      "type": "function"
    },
    {
      "inputs": [],
      "name": "numPlayers",
      "outputs": [
        {
          "internalType": "uint8",
          "name": "",
          "type": "uint8"
        }
      ],
      "stateMutability": "view",
      "type": "function"
    },
    {
      "stateMutability": "payable",
      "type": "receive"
    },
    {
      "inputs": [
        {
          "internalType": "uint8",
          "name": "no_players",
          "type": "uint8"
        }
      ],
      "name": "setPlayer",
      "outputs": [],
      "stateMutability": "nonpayable",
      "type": "function"
    },
    {
      "inputs": [
        {
          "internalType": "uint8",
          "name": "no_dice",
          "type": "uint8"
        }
      ],
      "name": "setDice",
      "outputs": [],
      "stateMutability": "nonpayable",
      "type": "function"
    },
    {
      "inputs": [],
      "name": "initialpay",
      "outputs": [],
      "stateMutability": "payable",
      "type": "function"
    }
  ],
  "bytecode": "0x608060405260056000806101000a81548160ff021916908360ff16021790555060008060016101000a81548160ff021916908360ff16021790555033600060026101000a81548173ffffffffffffffffffffffffffffffffffffffff021916908373ffffffffffffffffffffffffffffffffffffffff16021790555060008060166101000a81548160ff0219169083151502179055506002600060176101000a81548160ff021916908360ff16021790555060008060196101000a81548160ff021916908360ff1602179055506000600260006101000a81548160ff021916908360ff1602179055503480156100f457600080fd5b5060008060176101000a81548160ff021916908360ff16021790555060008060186101000a81548160ff021916908360ff160217905550600180819055506000600760006101000a81548160ff0219169083600681111561015157fe5b0217905550600080601a6101000a81548160ff021916908360ff16021790555060006003600001819055506000600360010160006101000a81548160ff021916908360ff16021790555060ff600260016101000a81548160ff021916908360ff1602179055506106d3806101c66000396000f3fe60806040526004361061004e5760003560e01c806347156fa61461005a578063497dc89f1461009857806397b2f556146100d6578063aa268fd714610104578063fb882b101461010e57610055565b3661005557005b600080fd5b34801561006657600080fd5b506100966004803603602081101561007d57600080fd5b81019080803560ff16906020019092919050505061013c565b005b3480156100a457600080fd5b506100d4600480360360208110156100bb57600080fd5b81019080803560ff169060200190929190505050610159565b005b3480156100e257600080fd5b506100eb610177565b604051808260ff16815260200191505060405180910390f35b61010c61018a565b005b34801561011a57600080fd5b50610123610594565b604051808260ff16815260200191505060405180910390f35b806000806101000a81548160ff021916908360ff16021790555050565b80600060176101000a81548160ff021916908360ff16021790555050565b600060179054906101000a900460ff1681565b60001515600660003373ffffffffffffffffffffffffffffffffffffffff1673ffffffffffffffffffffffffffffffffffffffff16815260200190815260200160002060000160009054906101000a900460ff16151514610253576040517f08c379a00000000000000000000000000000000000000000000000000000000081526004018080602001828103825260178152602001807f416c7265616479206a6f696e6564207468652067616d6500000000000000000081525060200191505060405180910390fd5b6001543410156102ae576040517f08c379a000000000000000000000000000000000000000000000000000000000815260040180806020018281038252602281526020018061067c6022913960400191505060405180910390fd5b6000600660003373ffffffffffffffffffffffffffffffffffffffff1673ffffffffffffffffffffffffffffffffffffffff16815260200190815260200160002090506005339080600181540180825580915050600190039060005260206000200160009091909190916101000a81548173ffffffffffffffffffffffffffffffffffffffff021916908373ffffffffffffffffffffffffffffffffffffffff16021790555060018160000160006101000a81548160ff02191690831515021790555060018160000160016101000a81548160ff02191690831515021790555060008054906101000a900460ff168160000160026101000a81548160ff021916908360ff16021790555060008054906101000a900460ff168160000160036101000a81548160ff021916908360ff1602179055506000816002018054905014156104625760008054906101000a900460ff1660ff1667ffffffffffffffff8111801561041957600080fd5b506040519080825280602002602001820160405280156104485781602001602082028036833780820191505090505b508160020190805190602001906104609291906105a7565b505b6000816003018054905014156104e25760008054906101000a900460ff1660ff1667ffffffffffffffff8111801561049957600080fd5b506040519080825280602002602001820160405280156104c85781602001602082028036833780820191505090505b508160030190805190602001906104e09291906105f4565b505b6001600580549050038160000160046101000a81548160ff021916908360ff1602179055506001600060188282829054906101000a900460ff160192506101000a81548160ff021916908360ff16021790555060015434111561054d57600154340381600101819055505b600060179054906101000a900460ff1660ff166005805490501415610591576001600760006101000a81548160ff0219169083600681111561058b57fe5b02179055505b50565b600060189054906101000a900460ff1681565b8280548282559060005260206000209081019282156105e3579160200282015b828111156105e25782518255916020019190600101906105c7565b5b5090506105f09190610641565b5090565b828054828255906000526020600020908101928215610630579160200282015b8281111561062f578251825591602001919060010190610614565b5b50905061063d919061065e565b5090565b5b8082111561065a576000816000905550600101610642565b5090565b5b8082111561067757600081600090555060010161065f565b509056fe4e6f7420656e6f756768206d6f6e65792073656e7420746f206a6f696e2067616d65a26469706673582212206a52c301ce7ac9765b86c193a7351d431925554a59e20a91fd818ec31e75950164736f6c63430007010033",
  "immutableReferences": {},
  "source": "// SPDX-License-Identifier: MIT\npragma solidity >=0.4.22 <0.8.0;\n\n/// @title Contract for Liars Dice single hand version of the game\n\ncontract Liars {\n\n    /// @dev number of dice given initially per player\n    uint8 numSetDice = 5;\n    uint8 numPaid = 0;\n    enum Stages\n    {\n        initial,\n        // roll,\n        receiveHashedRoll,\n        bid,\n        bid_challenge,\n        challenge,\n        receiveRevealedRoll,\n        endGame\n    }\n\n\n    /// @dev player bids by specifying the face value  and the number of dice with that face  value\n    struct bidInfo {\n        uint256 faceValue;\n        uint8 numDice;\n        uint8 playerPos;\n    }\n\n    /// @dev  exists: used to see if player joined the game status will be true till he withdraws any balance owed to him\n    /// @dev  inGame: used to see if player lost all his dice and out of the game\n    /// @dev  numDice: number of dice player currently posses\n    /// @dev  balance: player account balance in wei\n    /// @dev  concealedRollFaces: player's roll face values in current round for each of his dice as hash(before challenged)\n    /// @dev  revealedRollFaces: player's roll face values in current round for each of his dice(after challenge)\n  \n    struct PlayerInfo {\n         bool exists;\n         bool inGame;\n         uint8 numDice;\n         uint8 prevNumDice;\n         uint8 playerPos;    \n         uint256 balance; \n         bytes32 [] concealedRollFaces;\n         uint256 [] revealedRollFaces;\n    \n    }\n    /// @dev All the money from will be tranfered to this account.\n    address payable deployer = msg.sender;\n\n    /// @dev app fron end can check this and call functions to other players reveled dice so \n    /// that they can  be diplayed to player\n    bool revealUpdateReady = false;\n\n    /// @dev number of players that need to be join to start the game\n    uint8 public numPlayers =2;\n    /// @dev number of players that are still in the game\n    uint8 public numActivePlayers;\n    /// @dev current round number\n    uint8  numRound=0;\n    uint8  turnOfPlayer;\n    /// @dev the amount each player has to pay to play the game.\n    uint256  gameCost;\n\n    uint8 callCount=0;\n\n    /// @dev Front end app shows this by concatenating with string player (instead of address show as player 1, player 2 etc)\n    uint8  winnerPlayerPos;\n    bidInfo currentBid;\n\n    /// @dev players list player at pos 0 will strat the first bid and turns go in clock wise direction.\n    address [] playerList;\n\n    /// @dev Info associated with players for all players \n    mapping(address => PlayerInfo) players;\n\n    /// @dev Current stage of the game, fron end apps should call appropriate functions based on stage and display \n    /// relavent info to players like showing other players dice after challenge, Ask users to roll, bid/challenge\n    /// (in addition to getting the turn info)\n    Stages stage;\n\n\n    /// @dev stores the number of dice with that face value, updated after getting unHashed face value from each player\n    mapping(uint256 => uint8)rollFaceValues;\n\n    event WithDrewMoney(\n        address indexed _from,\n        uint256 value\n\n    );\n     event RecvHashedRoll(\n        address indexed _from,\n        bytes32 _value1,\n        bytes32 _value2\n    );\n    event SendNonHashedRoll(\n        address indexed _from,\n        uint256 _value,\n        uint256 _secret\n    );\n     event BidInfo(\n        uint256 _bidFaceValue,\n        uint8 _bidNumDice,\n        uint8 _newNumDice,\n        uint256 _newFaceValue\n    );\n\n   \n    /// @notice Constructor initialize default values\n    constructor ()   {\n        numPlayers = 0;\n\n        numActivePlayers = 0;\n        gameCost = 1;\n\n        stage = Stages.initial;\n        turnOfPlayer = 0;\n        currentBid.faceValue = 0;\n        currentBid.numDice = 0;\n        winnerPlayerPos = 255;\n\n    }\n\n    function setPlayer(uint8 no_players) public {\n        numPlayers = no_players;\n    }\n\n   function setDice(uint8 no_dice) public {\n        numSetDice = no_dice;\n    }\n\n    function initialpay() public payable {\n        require(players[msg.sender].exists == false, \"Already joined the game\");\n        require(msg.value >= gameCost, \"Not enough money sent to join game\");\n        PlayerInfo storage info = players[msg.sender];\n        playerList.push(msg.sender);\n        info.exists = true;\n        info.inGame = true;\n        info.numDice = numSetDice;\n        info.prevNumDice = numSetDice;\n        if (info.concealedRollFaces.length == 0){\n            info.concealedRollFaces = new bytes32 [](numSetDice);\n        }\n        if (info.revealedRollFaces.length == 0){\n            info.revealedRollFaces = new uint256 [](numSetDice);\n        }\n        info.playerPos = (uint8)(playerList.length) -1;\n        numActivePlayers +=1;\n\n        \n        if(msg.value > gameCost) {\n            info.balance = msg.value - gameCost;\n        }\n        if(playerList.length == numPlayers){\n            stage = Stages.receiveHashedRoll;\n        }\n    }\n    /// @notice  Fallback function to receive any transfers\n    receive() external payable {     \n    }\n    \n}",
  "sourcePath": "/home/shaik/BC/dapp/contracts/Liars.sol",
  "compiler": {
    "name": "solc",
    "version": "0.7.1+commit.f4a555be.Emscripten.clang"
  },
  "schemaVersion": "3.2.4",
  "updatedAt": "2020-10-08T10:31:06.642Z",
  "devdoc": {
    "kind": "dev",
    "methods": {},
    "stateVariables": {
      "deployer": {
        "details": "All the money from will be tranfered to this account."
      },
      "gameCost": {
        "details": "the amount each player has to pay to play the game."
      },
      "numActivePlayers": {
        "details": "number of players that are still in the game"
      },
      "numPlayers": {
        "details": "number of players that need to be join to start the game"
      },
      "numRound": {
        "details": "current round number"
      },
      "numSetDice": {
        "details": "number of dice given initially per player"
      },
      "playerList": {
        "details": "players list player at pos 0 will strat the first bid and turns go in clock wise direction."
      },
      "players": {
        "details": "Info associated with players for all players "
      },
      "revealUpdateReady": {
        "details": "app fron end can check this and call functions to other players reveled dice so  that they can  be diplayed to player"
      },
      "rollFaceValues": {
        "details": "stores the number of dice with that face value, updated after getting unHashed face value from each player"
      },
      "stage": {
        "details": "Current stage of the game, fron end apps should call appropriate functions based on stage and display  relavent info to players like showing other players dice after challenge, Ask users to roll, bid/challenge (in addition to getting the turn info)"
      },
      "winnerPlayerPos": {
        "details": "Front end app shows this by concatenating with string player (instead of address show as player 1, player 2 etc)"
      }
    },
    "title": "Contract for Liars Dice single hand version of the game",
    "version": 1
  },
  "userdoc": {
    "kind": "user",
    "methods": {
      "constructor": {
        "notice": "Constructor initialize default values"
      }
    },
    "version": 1
  }
}