{
  "contractName": "LiarsDice",
  "abi": [
    {
      "inputs": [
        {
          "internalType": "uint8",
          "name": "noOfPlayers",
          "type": "uint8"
        },
        {
          "internalType": "uint256",
          "name": "cost",
          "type": "uint256"
        }
      ],
      "stateMutability": "nonpayable",
      "type": "constructor"
    },
    {
      "anonymous": false,
      "inputs": [
        {
          "indexed": false,
          "internalType": "uint256",
          "name": "_bidFaceValue",
          "type": "uint256"
        },
        {
          "indexed": false,
          "internalType": "uint8",
          "name": "_bidNumDice",
          "type": "uint8"
        },
        {
          "indexed": false,
          "internalType": "uint8",
          "name": "_newNumDice",
          "type": "uint8"
        },
        {
          "indexed": false,
          "internalType": "uint256",
          "name": "_newFaceValue",
          "type": "uint256"
        }
      ],
      "name": "BidInfo",
      "type": "event"
    },
    {
      "anonymous": false,
      "inputs": [
        {
          "indexed": true,
          "internalType": "address",
          "name": "_from",
          "type": "address"
        },
        {
          "indexed": false,
          "internalType": "bytes32",
          "name": "_value1",
          "type": "bytes32"
        },
        {
          "indexed": false,
          "internalType": "bytes32",
          "name": "_value2",
          "type": "bytes32"
        }
      ],
      "name": "RecvHashedRoll",
      "type": "event"
    },
    {
      "anonymous": false,
      "inputs": [
        {
          "indexed": true,
          "internalType": "address",
          "name": "_from",
          "type": "address"
        },
        {
          "indexed": false,
          "internalType": "uint256",
          "name": "_value",
          "type": "uint256"
        },
        {
          "indexed": false,
          "internalType": "uint256",
          "name": "_secret",
          "type": "uint256"
        }
      ],
      "name": "SendNonHashedRoll",
      "type": "event"
    },
    {
      "anonymous": false,
      "inputs": [
        {
          "indexed": true,
          "internalType": "address",
          "name": "_from",
          "type": "address"
        },
        {
          "indexed": false,
          "internalType": "uint256",
          "name": "value",
          "type": "uint256"
        }
      ],
      "name": "WithDrewMoney",
      "type": "event"
    },
    {
      "inputs": [],
      "name": "playas",
      "outputs": [
        {
          "internalType": "uint256",
          "name": "",
          "type": "uint256"
        }
      ],
      "stateMutability": "view",
      "type": "function"
    },
    {
      "stateMutability": "payable",
      "type": "receive"
    },
    {
      "inputs": [],
      "name": "balanceof",
      "outputs": [
        {
          "internalType": "uint256",
          "name": "",
          "type": "uint256"
        }
      ],
      "stateMutability": "view",
      "type": "function"
    },
    {
      "inputs": [],
      "name": "getNumActivePlayers",
      "outputs": [
        {
          "internalType": "uint8",
          "name": "",
          "type": "uint8"
        }
      ],
      "stateMutability": "view",
      "type": "function"
    },
    {
      "inputs": [],
      "name": "getCurrentRound",
      "outputs": [
        {
          "internalType": "uint8",
          "name": "",
          "type": "uint8"
        }
      ],
      "stateMutability": "view",
      "type": "function"
    },
    {
      "inputs": [],
      "name": "ismyTurn",
      "outputs": [
        {
          "internalType": "bool",
          "name": "",
          "type": "bool"
        }
      ],
      "stateMutability": "view",
      "type": "function"
    },
    {
      "inputs": [],
      "name": "getGameCost",
      "outputs": [
        {
          "internalType": "uint256",
          "name": "",
          "type": "uint256"
        }
      ],
      "stateMutability": "view",
      "type": "function"
    },
    {
      "inputs": [],
      "name": "isRevealUpdateReady",
      "outputs": [
        {
          "internalType": "bool",
          "name": "",
          "type": "bool"
        }
      ],
      "stateMutability": "view",
      "type": "function"
    },
    {
      "inputs": [],
      "name": "getWinnerPlayerId",
      "outputs": [
        {
          "internalType": "uint8",
          "name": "",
          "type": "uint8"
        }
      ],
      "stateMutability": "view",
      "type": "function"
    },
    {
      "inputs": [],
      "name": "getCurrentBidInfo",
      "outputs": [
        {
          "internalType": "uint256",
          "name": "",
          "type": "uint256"
        },
        {
          "internalType": "uint8",
          "name": "",
          "type": "uint8"
        },
        {
          "internalType": "uint8",
          "name": "",
          "type": "uint8"
        }
      ],
      "stateMutability": "view",
      "type": "function"
    },
    {
      "inputs": [],
      "name": "getGameStage",
      "outputs": [
        {
          "internalType": "enum LiarsDice.Stages",
          "name": "",
          "type": "uint8"
        }
      ],
      "stateMutability": "view",
      "type": "function"
    },
    {
      "inputs": [
        {
          "internalType": "uint256",
          "name": "no_players",
          "type": "uint256"
        }
      ],
      "name": "setPlayer",
      "outputs": [],
      "stateMutability": "nonpayable",
      "type": "function"
    },
    {
      "inputs": [],
      "name": "joinGame",
      "outputs": [],
      "stateMutability": "payable",
      "type": "function"
    },
    {
      "inputs": [
        {
          "internalType": "bytes32[]",
          "name": "hashed",
          "type": "bytes32[]"
        }
      ],
      "name": "recvHashedRoll",
      "outputs": [],
      "stateMutability": "nonpayable",
      "type": "function"
    },
    {
      "inputs": [
        {
          "internalType": "uint8",
          "name": "faceValue",
          "type": "uint8"
        },
        {
          "internalType": "uint8",
          "name": "numDice",
          "type": "uint8"
        }
      ],
      "name": "sendBid",
      "outputs": [
        {
          "internalType": "bool",
          "name": "",
          "type": "bool"
        }
      ],
      "stateMutability": "nonpayable",
      "type": "function"
    },
    {
      "inputs": [],
      "name": "sendChallenge",
      "outputs": [],
      "stateMutability": "nonpayable",
      "type": "function"
    },
    {
      "inputs": [
        {
          "internalType": "uint256[]",
          "name": "faceValue",
          "type": "uint256[]"
        },
        {
          "internalType": "uint256",
          "name": "secret",
          "type": "uint256"
        }
      ],
      "name": "sendNonHashedRoll",
      "outputs": [],
      "stateMutability": "nonpayable",
      "type": "function"
    },
    {
      "inputs": [],
      "name": "getActivePlayerLIst",
      "outputs": [
        {
          "internalType": "uint8[]",
          "name": "",
          "type": "uint8[]"
        }
      ],
      "stateMutability": "view",
      "type": "function"
    },
    {
      "inputs": [
        {
          "internalType": "uint8",
          "name": "playerPos",
          "type": "uint8"
        }
      ],
      "name": "getPlayerReveal",
      "outputs": [
        {
          "internalType": "uint256[]",
          "name": "",
          "type": "uint256[]"
        }
      ],
      "stateMutability": "view",
      "type": "function"
    },
    {
      "inputs": [],
      "name": "withDrawMoney",
      "outputs": [],
      "stateMutability": "nonpayable",
      "type": "function"
    }
  ],
  "bytecode": "0x60806040526000805533600160006101000a81548173ffffffffffffffffffffffffffffffffffffffff021916908373ffffffffffffffffffffffffffffffffffffffff1602179055506000600160146101000a81548160ff0219169083151502179055506002600160156101000a81548160ff021916908360ff1602179055506000600160176101000a81548160ff021916908360ff1602179055506000600360006101000a81548160ff021916908360ff1602179055503480156100c457600080fd5b50604051613408380380613408833981810160405260408110156100e757600080fd5b81019080805190602001909291908051906020019092919050505081600160156101000a81548160ff021916908360ff1602179055506000600160166101000a81548160ff021916908360ff160217905550806002819055506000600860006101000a81548160ff0219169083600681111561015f57fe5b02179055506000600160186101000a81548160ff021916908360ff16021790555060006004600001819055506000600460010160006101000a81548160ff021916908360ff16021790555060ff600360016101000a81548160ff021916908360ff1602179055505050613231806101d76000396000f3fe6080604052600436106101185760003560e01c80637ede6edb116100a0578063c98b7c8911610064578063c98b7c8914610527578063d4f77b1c1461053e578063d5c6debc14610548578063de89184c14610573578063fa3ed2f3146106385761011f565b80637ede6edb146103cc5780638e7b40fb146103f9578063a32bf59714610427578063b974b60714610455578063bf35a602146104945761011f565b80632980a5d3116100e75780632980a5d3146102435780632f0bca261461026e57806346c079de146102a45780636688546c146102d25780636cff64b4146103a15761011f565b80630b32ae611461012457806313ea50c814610190578063176e5f32146101f1578063242f15ba146102085761011f565b3661011f57005b600080fd5b34801561013057600080fd5b50610139610665565b6040518080602001828103825283818151815260200191508051906020019060200280838360005b8381101561017c578082015181840152602081019050610161565b505050509050019250505060405180910390f35b34801561019c57600080fd5b506101d9600480360360408110156101b357600080fd5b81019080803560ff169060200190929190803560ff169060200190929190505050610779565b60405180821515815260200191505060405180910390f35b3480156101fd57600080fd5b50610206610aba565b005b34801561021457600080fd5b506102416004803603602081101561022b57600080fd5b8101908080359060200190929190505050610fc4565b005b34801561024f57600080fd5b50610258610fce565b6040518082815260200191505060405180910390f35b34801561027a57600080fd5b50610283610fd6565b6040518082600681111561029357fe5b815260200191505060405180910390f35b3480156102b057600080fd5b506102b9610fed565b604051808260ff16815260200191505060405180910390f35b3480156102de57600080fd5b5061039f600480360360408110156102f557600080fd5b810190808035906020019064010000000081111561031257600080fd5b82018360208201111561032457600080fd5b8035906020019184602083028401116401000000008311171561034657600080fd5b919080806020026020016040519081016040528093929190818152602001838360200280828437600081840152601f19601f82011690508083019250505050505050919291929080359060200190929190505050611004565b005b3480156103ad57600080fd5b506103b6611707565b6040518082815260200191505060405180910390f35b3480156103d857600080fd5b506103e161170d565b60405180821515815260200191505060405180910390f35b34801561040557600080fd5b5061040e611724565b604051808260ff16815260200191505060405180910390f35b34801561043357600080fd5b5061043c61173b565b604051808260ff16815260200191505060405180910390f35b34801561046157600080fd5b5061046a611752565b604051808481526020018360ff1681526020018260ff168152602001935050505060405180910390f35b3480156104a057600080fd5b506104d0600480360360208110156104b757600080fd5b81019080803560ff16906020019092919050505061178e565b6040518080602001828103825283818151815260200191508051906020019060200280838360005b838110156105135780820151818401526020810190506104f8565b505050509050019250505060405180910390f35b34801561053357600080fd5b5061053c6119e4565b005b610546611cc6565b005b34801561055457600080fd5b5061055d6121a8565b6040518082815260200191505060405180910390f35b34801561057f57600080fd5b506106366004803603602081101561059657600080fd5b81019080803590602001906401000000008111156105b357600080fd5b8201836020820111156105c557600080fd5b803590602001918460208302840111640100000000831117156105e757600080fd5b919080806020026020016040519081016040528093929190818152602001838360200280828437600081840152601f19601f8201169050808301925050505050505091929192905050506121b2565b005b34801561064457600080fd5b5061064d61270a565b60405180821515815260200191505060405180910390f35b60608060068054905067ffffffffffffffff8111801561068457600080fd5b506040519080825280602002602001820160405280156106b35781602001602082028036833780820191505090505b5090506000805b6006805490508160ff16101561077057600073ffffffffffffffffffffffffffffffffffffffff1660068260ff16815481106106f257fe5b9060005260206000200160009054906101000a900473ffffffffffffffffffffffffffffffffffffffff1673ffffffffffffffffffffffffffffffffffffffff16146107635780838360ff168151811061074857fe5b602002602001019060ff16908160ff16815250506001820191505b80806001019150506106ba565b50819250505090565b600060405180604001604052806002600681111561079357fe5b600681111561079e57fe5b8152602001600360068111156107b057fe5b60068111156107bb57fe5b8152506000805b60028160ff16101561082457828160ff16600281106107dd57fe5b602002015160068111156107ed57fe5b600860009054906101000a900460ff16600681111561080857fe5b14156108175760019150610824565b80806001019150506107c2565b506001151581151514610882576040517f08c379a00000000000000000000000000000000000000000000000000000000081526004018080602001828103825260278152602001806131a86027913960400191505060405180910390fd5b60011515600760003373ffffffffffffffffffffffffffffffffffffffff1673ffffffffffffffffffffffffffffffffffffffff16815260200190815260200160002060000160019054906101000a900460ff1615151461094b576040517f08c379a000000000000000000000000000000000000000000000000000000000815260040180806020018281038252601c8152602001807f596f7520617265206e6f742070617274206f66207468652067616d650000000081525060200191505060405180910390fd5b3373ffffffffffffffffffffffffffffffffffffffff166006600160189054906101000a900460ff1660ff168154811061098157fe5b9060005260206000200160009054906101000a900473ffffffffffffffffffffffffffffffffffffffff1673ffffffffffffffffffffffffffffffffffffffff1614610a35576040517f08c379a00000000000000000000000000000000000000000000000000000000081526004018080602001828103825260148152602001807f4e6f7420796f7572207475726e20746f2062696400000000000000000000000081525060200191505060405180910390fd5b6000610a448660ff1686612802565b9050600115158115151415610aae57600160189054906101000a900460ff16600460010160016101000a81548160ff021916908360ff1602179055506003600860006101000a81548160ff02191690836006811115610a9f57fe5b0217905550610aac6128e5565b505b80935050505092915050565b6040518060400160405280600680811115610ad157fe5b6006811115610adc57fe5b8152602001600680811115610aed57fe5b6006811115610af857fe5b8152506000805b60028160ff161015610b6157828160ff1660028110610b1a57fe5b60200201516006811115610b2a57fe5b600860009054906101000a900460ff166006811115610b4557fe5b1415610b545760019150610b61565b8080600101915050610aff565b506001151581151514610bbf576040517f08c379a00000000000000000000000000000000000000000000000000000000081526004018080602001828103825260278152602001806131a86027913960400191505060405180910390fd5b6000600760003373ffffffffffffffffffffffffffffffffffffffff1673ffffffffffffffffffffffffffffffffffffffff1681526020019081526020016000209050600115158160000160009054906101000a900460ff16151514610c70576040517f08c379a00000000000000000000000000000000000000000000000000000000081526004018080602001828103825260228152602001806131646022913960400191505060405180910390fd5b6000600760003373ffffffffffffffffffffffffffffffffffffffff1673ffffffffffffffffffffffffffffffffffffffff1681526020019081526020016000206001015490506000826001018190555060008260000160006101000a81548160ff0219169083151502179055506000811415610d55576040517f08c379a00000000000000000000000000000000000000000000000000000000081526004018080602001828103825260108152602001807f4e6f20416d6f756e74206973206475650000000000000000000000000000000081525060200191505060405180910390fd5b3373ffffffffffffffffffffffffffffffffffffffff166108fc829081150290604051600060405180830381858888f19350505050158015610d9b573d6000803e3d6000fd5b503373ffffffffffffffffffffffffffffffffffffffff167f4e02f1d2cde529c0de47b2a244032440aa26e7d8ece90a8c0b47e7bc42c5bd56826040518082815260200191505060405180910390a260008260000160016101000a81548160ff02191690831515021790555060058260000160026101000a81548160ff021916908360ff16021790555060058260000160036101000a81548160ff021916908360ff1602179055506006805480610e4e57fe5b6001900381819060005260206000200160006101000a81549073ffffffffffffffffffffffffffffffffffffffff021916905590556001600360008282829054906101000a900460ff160192506101000a81548160ff021916908360ff160217905550600160159054906101000a900460ff1660ff16600360009054906101000a900460ff1660ff161415610fbe57600160009054906101000a900473ffffffffffffffffffffffffffffffffffffffff1673ffffffffffffffffffffffffffffffffffffffff166108fc479081150290604051600060405180830381858888f19350505050158015610f45573d6000803e3d6000fd5b506000600860006101000a81548160ff02191690836006811115610f6557fe5b02179055506000600360006101000a81548160ff021916908360ff1602179055506000600160146101000a81548160ff0219169083151502179055506000600160166101000a81548160ff021916908360ff1602179055505b50505050565b8060008190555050565b600047905090565b6000600860009054906101000a900460ff16905090565b6000600360019054906101000a900460ff16905090565b60405180604001604052806004600681111561101c57fe5b600681111561102757fe5b81526020016004600681111561103957fe5b600681111561104457fe5b8152506000805b60028160ff1610156110ad57828160ff166002811061106657fe5b6020020151600681111561107657fe5b600860009054906101000a900460ff16600681111561109157fe5b14156110a057600191506110ad565b808060010191505061104b565b50600115158115151461110b576040517f08c379a00000000000000000000000000000000000000000000000000000000081526004018080602001828103825260278152602001806131a86027913960400191505060405180910390fd5b3373ffffffffffffffffffffffffffffffffffffffff167fca497e52bb150beb6dd465334f17e8b560782d4eaf69f84c838555e720a49b3e855185604051808381526020018281526020019250505060405180910390a260005b84518160ff161015611200573373ffffffffffffffffffffffffffffffffffffffff167fca497e52bb150beb6dd465334f17e8b560782d4eaf69f84c838555e720a49b3e868360ff16815181106111b857fe5b6020026020010151878460ff16815181106111cf57fe5b6020026020010151604051808381526020018281526020019250505060405180910390a28080600101915050611165565b5060011515600760003373ffffffffffffffffffffffffffffffffffffffff1673ffffffffffffffffffffffffffffffffffffffff16815260200190815260200160002060000160019054906101000a900460ff161515146112ca576040517f08c379a000000000000000000000000000000000000000000000000000000000815260040180806020018281038252601c8152602001807f596f7520617265206e6f742070617274206f66207468652067616d650000000081525060200191505060405180910390fd5b8351600760003373ffffffffffffffffffffffffffffffffffffffff1673ffffffffffffffffffffffffffffffffffffffff16815260200190815260200160002060000160029054906101000a900460ff1660ff1614611392576040517f08c379a00000000000000000000000000000000000000000000000000000000081526004018080602001828103825260208152602001807f506c656173652073656e6420616c6c20796f757220646963652076616c75657381525060200191505060405180910390fd5b600061142f8585600760003373ffffffffffffffffffffffffffffffffffffffff1673ffffffffffffffffffffffffffffffffffffffff16815260200190815260200160002060020180548060200260200160405190810160405280929190818152602001828054801561142557602002820191906000526020600020905b815481526020019060010190808311611411575b5050505050612b45565b9050600115158115151461148e576040517f08c379a000000000000000000000000000000000000000000000000000000000815260040180806020018281038252602d8152602001806131cf602d913960400191505060405180910390fd5b6000600360009054906101000a900460ff1660ff1614156114fb576000600190505b60078160ff1610156114f9576000600960008360ff16815260200190815260200160002060006101000a81548160ff021916908360ff16021790555080806001019150506114b0565b505b60005b85518160ff1610156115e157858160ff168151811061151957fe5b6020026020010151600760003373ffffffffffffffffffffffffffffffffffffffff1673ffffffffffffffffffffffffffffffffffffffff1681526020019081526020016000206003018260ff168154811061157157fe5b9060005260206000200181905550600160096000888460ff168151811061159457fe5b6020026020010151815260200190815260200160002060008282829054906101000a900460ff160192506101000a81548160ff021916908360ff16021790555080806001019150506114fe565b506001600360008282829054906101000a900460ff160192506101000a81548160ff021916908360ff160217905550600160169054906101000a900460ff1660ff16600360009054906101000a900460ff1660ff16141561170057611644612bd1565b60ff600160189054906101000a900460ff1660ff1614156116a4576006600860006101000a81548160ff0219169083600681111561167e57fe5b02179055506000600160186101000a81548160ff021916908360ff1602179055506116c9565b6001600860006101000a81548160ff021916908360068111156116c357fe5b02179055505b6000600360006101000a81548160ff021916908360ff16021790555060018060146101000a81548160ff0219169083151502179055505b5050505050565b60005481565b6000600160149054906101000a900460ff16905090565b6000600160169054906101000a900460ff16905090565b6000600160179054906101000a900460ff16905090565b6000806000600460000154600460010160009054906101000a900460ff16600460010160019054906101000a900460ff16925092509250909192565b6060600160159054906101000a900460ff1660ff168260ff161061181a576040517f08c379a00000000000000000000000000000000000000000000000000000000081526004018080602001828103825260158152602001807f506c6179657220646f6573206e6f74206578697374000000000000000000000081525060200191505060405180910390fd5b600060068360ff168154811061182c57fe5b9060005260206000200160009054906101000a900473ffffffffffffffffffffffffffffffffffffffff1690506060600760008373ffffffffffffffffffffffffffffffffffffffff1673ffffffffffffffffffffffffffffffffffffffff16815260200190815260200160002060000160039054906101000a900460ff1660ff1667ffffffffffffffff811180156118c457600080fd5b506040519080825280602002602001820160405280156118f35781602001602082028036833780820191505090505b50905060005b600760008473ffffffffffffffffffffffffffffffffffffffff1673ffffffffffffffffffffffffffffffffffffffff16815260200190815260200160002060000160039054906101000a900460ff1660ff168160ff1610156119d957600760008473ffffffffffffffffffffffffffffffffffffffff1673ffffffffffffffffffffffffffffffffffffffff1681526020019081526020016000206003018160ff16815481106119a657fe5b9060005260206000200154828260ff16815181106119c057fe5b60200260200101818152505080806001019150506118f9565b508092505050919050565b6040518060400160405280600360068111156119fc57fe5b6006811115611a0757fe5b815260200160036006811115611a1957fe5b6006811115611a2457fe5b8152506000805b60028160ff161015611a8d57828160ff1660028110611a4657fe5b60200201516006811115611a5657fe5b600860009054906101000a900460ff166006811115611a7157fe5b1415611a805760019150611a8d565b8080600101915050611a2b565b506001151581151514611aeb576040517f08c379a00000000000000000000000000000000000000000000000000000000081526004018080602001828103825260278152602001806131a86027913960400191505060405180910390fd5b60011515600760003373ffffffffffffffffffffffffffffffffffffffff1673ffffffffffffffffffffffffffffffffffffffff16815260200190815260200160002060000160019054906101000a900460ff16151514611bb4576040517f08c379a000000000000000000000000000000000000000000000000000000000815260040180806020018281038252601c8152602001807f596f7520617265206e6f742070617274206f66207468652067616d650000000081525060200191505060405180910390fd5b3373ffffffffffffffffffffffffffffffffffffffff166006600160189054906101000a900460ff1660ff1681548110611bea57fe5b9060005260206000200160009054906101000a900473ffffffffffffffffffffffffffffffffffffffff1673ffffffffffffffffffffffffffffffffffffffff1614611c9e576040517f08c379a000000000000000000000000000000000000000000000000000000000815260040180806020018281038252600d8152602001807f4e6f7420796f7572207475726e0000000000000000000000000000000000000081525060200191505060405180910390fd5b6004600860006101000a81548160ff02191690836006811115611cbd57fe5b02179055505050565b604051806040016040528060006006811115611cde57fe5b6006811115611ce957fe5b815260200160006006811115611cfb57fe5b6006811115611d0657fe5b8152506000805b60028160ff161015611d6f57828160ff1660028110611d2857fe5b60200201516006811115611d3857fe5b600860009054906101000a900460ff166006811115611d5357fe5b1415611d625760019150611d6f565b8080600101915050611d0d565b506001151581151514611dcd576040517f08c379a00000000000000000000000000000000000000000000000000000000081526004018080602001828103825260278152602001806131a86027913960400191505060405180910390fd5b60001515600760003373ffffffffffffffffffffffffffffffffffffffff1673ffffffffffffffffffffffffffffffffffffffff16815260200190815260200160002060000160009054906101000a900460ff16151514611e96576040517f08c379a00000000000000000000000000000000000000000000000000000000081526004018080602001828103825260178152602001807f416c7265616479206a6f696e6564207468652067616d6500000000000000000081525060200191505060405180910390fd5b600254341015611ef1576040517f08c379a00000000000000000000000000000000000000000000000000000000081526004018080602001828103825260228152602001806131866022913960400191505060405180910390fd5b6000600760003373ffffffffffffffffffffffffffffffffffffffff1673ffffffffffffffffffffffffffffffffffffffff16815260200190815260200160002090506006339080600181540180825580915050600190039060005260206000200160009091909190916101000a81548173ffffffffffffffffffffffffffffffffffffffff021916908373ffffffffffffffffffffffffffffffffffffffff16021790555060018160000160006101000a81548160ff02191690831515021790555060018160000160016101000a81548160ff02191690831515021790555060058160000160026101000a81548160ff021916908360ff16021790555060058160000160036101000a81548160ff021916908360ff16021790555060008160020180549050141561208157600560ff1667ffffffffffffffff8111801561203857600080fd5b506040519080825280602002602001820160405280156120675781602001602082028036833780820191505090505b5081600201908051906020019061207f92919061308f565b505b6000816003018054905014156120f557600560ff1667ffffffffffffffff811180156120ac57600080fd5b506040519080825280602002602001820160405280156120db5781602001602082028036833780820191505090505b508160030190805190602001906120f39291906130dc565b505b6001600680549050038160000160046101000a81548160ff021916908360ff16021790555060018060168282829054906101000a900460ff160192506101000a81548160ff021916908360ff16021790555060025434111561215f57600254340381600101819055505b600160159054906101000a900460ff1660ff1660068054905014156121a3576001600860006101000a81548160ff0219169083600681111561219d57fe5b02179055505b505050565b6000600254905090565b6040518060400160405280600160068111156121ca57fe5b60068111156121d557fe5b8152602001600160068111156121e757fe5b60068111156121f257fe5b8152506000805b60028160ff16101561225b57828160ff166002811061221457fe5b6020020151600681111561222457fe5b600860009054906101000a900460ff16600681111561223f57fe5b141561224e576001915061225b565b80806001019150506121f9565b5060011515811515146122b9576040517f08c379a00000000000000000000000000000000000000000000000000000000081526004018080602001828103825260278152602001806131a86027913960400191505060405180910390fd5b60005b83518160ff161015612357573373ffffffffffffffffffffffffffffffffffffffff167fe697be25487c5a7f3ad1311d855127eb1f8e9a42d2fda03ee4aa5f2bdfe198a4858360ff168151811061230f57fe5b6020026020010151868460ff168151811061232657fe5b6020026020010151604051808381526020018281526020019250505060405180910390a280806001019150506122bc565b5060011515600760003373ffffffffffffffffffffffffffffffffffffffff1673ffffffffffffffffffffffffffffffffffffffff16815260200190815260200160002060000160019054906101000a900460ff16151514612421576040517f08c379a000000000000000000000000000000000000000000000000000000000815260040180806020018281038252601c8152602001807f596f7520617265206e6f742070617274206f66207468652067616d650000000081525060200191505060405180910390fd5b8251600760003373ffffffffffffffffffffffffffffffffffffffff1673ffffffffffffffffffffffffffffffffffffffff16815260200190815260200160002060000160029054906101000a900460ff1660ff16146124e9576040517f08c379a00000000000000000000000000000000000000000000000000000000081526004018080602001828103825260208152602001807f506c656173652073656e6420616c6c20796f757220646963652076616c75657381525060200191505060405180910390fd5b60005b83518160ff16101561257a57838160ff168151811061250757fe5b6020026020010151600760003373ffffffffffffffffffffffffffffffffffffffff1673ffffffffffffffffffffffffffffffffffffffff1681526020019081526020016000206002018260ff168154811061255f57fe5b906000526020600020018190555080806001019150506124ec565b506000600160146101000a81548160ff021916908315150217905550600760003373ffffffffffffffffffffffffffffffffffffffff1673ffffffffffffffffffffffffffffffffffffffff16815260200190815260200160002060000160029054906101000a900460ff16600760003373ffffffffffffffffffffffffffffffffffffffff1673ffffffffffffffffffffffffffffffffffffffff16815260200190815260200160002060000160036101000a81548160ff021916908360ff1602179055506001600360008282829054906101000a900460ff160192506101000a81548160ff021916908360ff160217905550600160169054906101000a900460ff1660ff16600360009054906101000a900460ff1660ff161415612705576002600860006101000a81548160ff021916908360068111156126b957fe5b02179055506000600360006101000a81548160ff021916908360ff16021790555060006004600001819055506000600460010160006101000a81548160ff021916908360ff1602179055505b505050565b600060ff600160189054906101000a900460ff1660ff16141561273057600090506127ff565b60011515600760003373ffffffffffffffffffffffffffffffffffffffff1673ffffffffffffffffffffffffffffffffffffffff16815260200190815260200160002060000160019054906101000a900460ff16151514156127fa57600160189054906101000a900460ff1660ff16600760003373ffffffffffffffffffffffffffffffffffffffff1673ffffffffffffffffffffffffffffffffffffffff16815260200190815260200160002060000160049054906101000a900460ff1660ff161490506127ff565b600090505b90565b6000806000905083600460000154101561281b57600190505b8260ff16600460010160009054906101000a900460ff1660ff16101561284057600190505b7fe4c5a2979336850f498920e8cdfc211d367cf76a3431ea9c68a85184dc30d7f7600460000154600460010160009054906101000a900460ff168587604051808581526020018460ff1681526020018360ff16815260200182815260200194505050505060405180910390a180156128db578360046000018190555082600460010160006101000a81548160ff021916908360ff1602179055505b8091505092915050565b600060018060169054906101000a900460ff1660ff1614156129345760ff600160186101000a81548160ff021916908360ff160217905550600160189054906101000a900460ff169050612b42565b6000600160189054906101000a900460ff16905060018060188282829054906101000a900460ff160192506101000a81548160ff021916908360ff160217905550600160159054906101000a900460ff1660ff16600160189054906101000a900460ff1660ff16106129bd576000600160186101000a81548160ff021916908360ff1602179055505b8060ff16600160189054906101000a900460ff1660ff1614156129f75760ff600160186101000a81548160ff021916908360ff1602179055505b5b600073ffffffffffffffffffffffffffffffffffffffff166006600160189054906101000a900460ff1660ff1681548110612a2f57fe5b9060005260206000200160009054906101000a900473ffffffffffffffffffffffffffffffffffffffff1673ffffffffffffffffffffffffffffffffffffffff161415612b2e5760018060188282829054906101000a900460ff160192506101000a81548160ff021916908360ff160217905550600160159054906101000a900460ff1660ff16600160189054906101000a900460ff1660ff1610612aeb576000600160186101000a81548160ff021916908360ff1602179055505b8060ff16600160189054906101000a900460ff1660ff161415612b295760ff600160186101000a81548160ff021916908360ff160217905550612b2e565b6129f8565b600160189054906101000a900460ff169150505b90565b6000806001905060005b85518160ff161015612bad57612b7b868260ff1681518110612b6d57fe5b602002602001015186613056565b848260ff1681518110612b8a57fe5b602002602001015114612ba05760009150612bad565b8080600101915050612b4f565b60008160ff161415612bc457600092505050612bca565b81925050505b9392505050565b600080600060096000600460000154815260200190815260200160002060009054906101000a900460ff169050600160046000015414612c3257600960006001815260200190815260200160002060009054906101000a900460ff16810190505b600460010160009054906101000a900460ff1660ff168160ff161015612ce5576006600460010160019054906101000a900460ff1660ff1681548110612c7457fe5b9060005260206000200160009054906101000a900473ffffffffffffffffffffffffffffffffffffffff169250600460010160019054906101000a900460ff169150600160189054906101000a900460ff16600360016101000a81548160ff021916908360ff160217905550612d71565b6006600160189054906101000a900460ff1660ff1681548110612d0457fe5b9060005260206000200160009054906101000a900473ffffffffffffffffffffffffffffffffffffffff169250600160189054906101000a900460ff169150600460010160019054906101000a900460ff16600360016101000a81548160ff021916908360ff1602179055505b600760008473ffffffffffffffffffffffffffffffffffffffff1673ffffffffffffffffffffffffffffffffffffffff16815260200190815260200160002060000160029054906101000a900460ff16600760008573ffffffffffffffffffffffffffffffffffffffff1673ffffffffffffffffffffffffffffffffffffffff16815260200190815260200160002060000160036101000a81548160ff021916908360ff1602179055506001600760008573ffffffffffffffffffffffffffffffffffffffff1673ffffffffffffffffffffffffffffffffffffffff16815260200190815260200160002060000160028282829054906101000a900460ff160392506101000a81548160ff021916908360ff16021790555060018060178282829054906101000a900460ff160192506101000a81548160ff021916908360ff1602179055506000600760008573ffffffffffffffffffffffffffffffffffffffff1673ffffffffffffffffffffffffffffffffffffffff16815260200190815260200160002060000160029054906101000a900460ff1660ff161415613035576000600760008573ffffffffffffffffffffffffffffffffffffffff1673ffffffffffffffffffffffffffffffffffffffff16815260200190815260200160002060000160016101000a81548160ff021916908315150217905550600073ffffffffffffffffffffffffffffffffffffffff166006600760008673ffffffffffffffffffffffffffffffffffffffff1673ffffffffffffffffffffffffffffffffffffffff16815260200190815260200160002060000160049054906101000a900460ff1660ff1681548110612fe357fe5b9060005260206000200160009054906101000a9050505060018060168282829054906101000a900460ff160392506101000a81548160ff021916908360ff16021790555061302f6128e5565b50613051565b81600160186101000a81548160ff021916908360ff1602179055505b505050565b60008282604051602001808381526020018281526020019250505060405160208183030381529060405280519060200120905092915050565b8280548282559060005260206000209081019282156130cb579160200282015b828111156130ca5782518255916020019190600101906130af565b5b5090506130d89190613129565b5090565b828054828255906000526020600020908101928215613118579160200282015b828111156131175782518255916020019190600101906130fc565b5b5090506131259190613146565b5090565b5b8082111561314257600081600090555060010161312a565b5090565b5b8082111561315f576000816000905550600101613147565b509056fe506c6179657220646f6573206e6f7420657869737420696e20746869732067616d654e6f7420656e6f756768206d6f6e65792073656e7420746f206a6f696e2067616d6546756e6374696f6e2063616e6e6f742062652063616c6c656420617420746869732074696d652e596f75722072657665616c20646f6573206e6f74206d61746368206861736865642076616c7565732073656e74a26469706673582212203a3201786c3d65c7b94a7477d6f2bacf9db8ba049290fc55c580a32417a661e264736f6c63430007010033",
  "immutableReferences": {},
  "source": "// SPDX-License-Identifier: MIT\npragma solidity >=0.4.22 <0.8.0;\n\n/// @title Contract for Liars Dice single hand version of the game\n\ncontract LiarsDice {\n\n    uint256 public playas = 0;\n    /// @dev number of dice given initially per player\n    uint8 constant numSetDice = 5;\n    \n    enum Stages\n    {\n        initial,\n        // roll,\n        receiveHashedRoll,\n        bid,\n        bid_challenge,\n        challenge,\n        receiveRevealedRoll,\n        endGame\n    }\n\n\n    /// @dev player bids by specifying the face value  and the number of dice with that face  value\n    struct bidInfo {\n        uint256 faceValue;\n        uint8 numDice;\n        uint8 playerPos;\n    }\n\n    /// @dev  exists: used to see if player joined the game status will be true till he withdraws any balance owed to him\n    /// @dev  inGame: used to see if player lost all his dice and out of the game\n    /// @dev  numDice: number of dice player currently posses\n    /// @dev  balance: player account balance in wei\n    /// @dev  concealedRollFaces: player's roll face values in current round for each of his dice as hash(before challenged)\n    /// @dev  revealedRollFaces: player's roll face values in current round for each of his dice(after challenge)\n  \n    struct PlayerInfo {\n         bool exists;\n         bool inGame;\n         uint8 numDice;\n         uint8 prevNumDice;\n         uint8 playerPos;    \n         uint256 balance; \n         bytes32 [] concealedRollFaces;\n         uint256 [] revealedRollFaces;\n    \n    }\n    /// @dev All the money from will be tranfered to this account.\n    address payable deployer = msg.sender;\n\n    /// @dev app fron end can check this and call functions to other players reveled dice so \n    /// that they can  be diplayed to player\n    bool revealUpdateReady = false;\n\n    /// @dev number of players that need to be join to start the game\n    uint8 numPlayers =2;\n    /// @dev number of players that are still in the game\n    uint8 numActivePlayers;\n    /// @dev current round number\n    uint8  numRound=0;\n    uint8  turnOfPlayer;\n    /// @dev the amount each player has to pay to play the game.\n    uint256  gameCost;\n\n    uint8 callCount=0;\n\n    /// @dev Front end app shows this by concatenating with string player (instead of address show as player 1, player 2 etc)\n    uint8  winnerPlayerPos;\n    bidInfo currentBid;\n\n    /// @dev players list player at pos 0 will strat the first bid and turns go in clock wise direction.\n    address [] playerList;\n\n    /// @dev Info associated with players for all players \n    mapping(address => PlayerInfo) players;\n\n    /// @dev Current stage of the game, fron end apps should call appropriate functions based on stage and display \n    /// relavent info to players like showing other players dice after challenge, Ask users to roll, bid/challenge\n    /// (in addition to getting the turn info)\n    Stages stage;\n\n\n    /// @dev stores the number of dice with that face value, updated after getting unHashed face value from each player\n    mapping(uint256 => uint8)rollFaceValues;\n\n    event WithDrewMoney(\n        address indexed _from,\n        uint256 value\n\n    );\n     event RecvHashedRoll(\n        address indexed _from,\n        bytes32 _value1,\n        bytes32 _value2\n    );\n    event SendNonHashedRoll(\n        address indexed _from,\n        uint256 _value,\n        uint256 _secret\n    );\n     event BidInfo(\n        uint256 _bidFaceValue,\n        uint8 _bidNumDice,\n        uint8 _newNumDice,\n        uint256 _newFaceValue\n    );\n\n   \n    /// @notice Constructor initialize default values\n    /// @param noOfPlayers: number of players needed to start the game\n    /// @param cost: amount of wei that each player should pay to play game\n    constructor (uint8 noOfPlayers, uint256 cost)   {\n        numPlayers = noOfPlayers;\n\n        numActivePlayers = 0;\n        gameCost = cost;\n\n        stage = Stages.initial;\n        turnOfPlayer = 0;\n        currentBid.faceValue = 0;\n        currentBid.numDice = 0;\n        winnerPlayerPos = 255;\n\n    }\n\n    /// @notice Function returns the amount present in the contract address balance. \n    /// @return returns conntract balance\n    function balanceof() external view returns(uint){\n        \n        return address(this).balance;\n    }\n    /// @notice Function Front end app call to see number of players that are still in the game \n    /// @return returns number of players currently  in the game\n    function getNumActivePlayers() external view returns(uint8){\n        \n        return numActivePlayers;\n    }\n    /// @notice Function Front end app call to diplay current round number .\n    /// @return returns round number.\n    function getCurrentRound() external view returns(uint8){\n        \n        return numRound;\n    }\n    /// @notice Function Front end app call to check the turn.\n    /// @return returns if its this player turn. Based on this app should show bid/challenge options to player.\n    function ismyTurn() external view returns(bool){\n        \n        if (turnOfPlayer == 255){\n           return false;\n        }\n        if (players[msg.sender].inGame == true){\n            return (players[msg.sender].playerPos == turnOfPlayer);\n        }\n        return false;\n    }\n    /// @notice Function Front end app call to diplay amount player has to pay to enter the game.    \n    /// @return returns amount in wei \n    function getGameCost() external view returns(uint256){\n        \n        return gameCost;\n    }\n\n    /// @notice Function Front end app call this function to see if all the players \n    /// revealed their roll after a challenge. And can call getActivePlayerLIst and getPlayerReveal to\n    /// update dashboard.\n    /// @return returns True or false \n    function isRevealUpdateReady() external view returns(bool){\n        \n        return revealUpdateReady;\n    }\n    /// @notice Function Front end app call this function to show winner.\n    /// shows this by concatenating with string player (instead of address, player 1 , player 2 will be shown)\n    /// @return winnerId: return current round winner. when single player is left, this contains game winner.\n    /// value 255 should be read as None.\n    function getWinnerPlayerId() external view returns(uint8 ){\n        return winnerPlayerPos;\n    }\n    /// @notice Function Front end app call this function to get current bid information\n    /// @return faceValue: dice face value bid by player numDice: number of dice with that face value\n    /// playerId: id of the palyer from whom this bid was received.\n    function getCurrentBidInfo() external view returns(uint256, uint8, uint8){\n        // uint256 faceValue1 = currentBid.faceValue;\n        // uint8 numDice1 = currentBid.numDice;\n        // return (faceValue1, numDice1);\n        return (currentBid.faceValue, currentBid.numDice, currentBid.playerPos);\n    }\n    /// @notice Function Front end app call to get game stage.\n    /// @return stage: returns current stage of the game as enum.\n    ///  initial = 0, receiveHashedRoll=1,bid =2,bid_challenge= 3,\n    /// challenge=4,receiveRevealedRoll=5,endGame=6\n    function getGameStage() external view returns(Stages ){\n        return (stage);\n    }\n    \n    /// @dev Validates if a perticuler function can be called at a given stage of the game\n    /// @dev _stage:  list of stages in which a perticuler function call is allowed\n    modifier atStage(Stages [2] memory _stage)\n    {\n        bool validStage = false;\n        for (uint8 i =0; i<_stage.length; i++){\n            if(stage == _stage[i]){\n                validStage = true;\n                break;\n            }\n        }\n        require\n        (\n            validStage == true ,\n            \"Function cannot be called at this time.\"\n        );\n        _;\n    }\n\n    /// @dev After a player bids/challenges determines who would be the next player allowed to bid/challenge.\n    /// PlayerList an array of address is used as a circuler buffer to determine the turn. If a perticuler player\n    /// at a position is eliminated from game then address is set to 0. If we ended up wit same position \n    /// as original position that means all other players are eliminated and that was marked with a high number 255.\n    function updateTurn()  internal returns(uint8) {\n        if( numActivePlayers == 1){\n            turnOfPlayer = 255;\n            return turnOfPlayer;\n        }\n        uint8 origTurn = turnOfPlayer;\n        turnOfPlayer += 1;\n        if(turnOfPlayer >= numPlayers){\n           turnOfPlayer = 0; \n        }\n        if(turnOfPlayer == origTurn){\n           turnOfPlayer = 255; \n        }\n        while(playerList[turnOfPlayer] == address(0)){\n            turnOfPlayer += 1;\n\n            if (turnOfPlayer >= numPlayers){\n                turnOfPlayer = 0;\n            }\n            if(turnOfPlayer == origTurn){\n               turnOfPlayer = 255; \n               break;\n            }\n        }\n        \n        return turnOfPlayer;\n    }\n\n    function setPlayer(uint256 no_players) public {\n        playas = no_players;\n    }\n    /// @dev Function to check if revealed face values matches with hashed values sent before\n    function validateReveal(uint256 [] memory faceValue, uint256 secret, bytes32 [] memory hashedVal) pure internal returns(bool) {\n        bool validRoll = true;\n        uint8 i =0;\n        for (i=0; i<faceValue.length; i++){\n            if (hashedVal[i] != getHash(faceValue[i], secret)){\n                validRoll = false;\n                break;\n            }\n        }\n        if (i == 0) {\n            return false;\n        }\n       \n        return validRoll;         \n    }\n\n    /// @dev Function to check if bid came as per current rules i.e increase face value or increase in number of dices \n    /// with same face value or increase in both. \n    /// currently no penalty for sending invalid bid. simply he won't be the person that wins/looses based on the \n    /// next person's challenge result.\n    function validateAndSaveBid(uint256 faceValue, uint8 numDice)  internal returns(bool) {\n        bool validBid = false;\n        if (currentBid.faceValue < faceValue){\n           validBid = true;\n        }\n        if (currentBid.numDice < numDice){\n           validBid = true;\n        }\n        emit BidInfo(currentBid.faceValue, currentBid.numDice, numDice, faceValue );\n        if (validBid){\n            currentBid.faceValue = faceValue;\n            currentBid.numDice = numDice;     \n        }\n        return validBid;         \n    }\n     /// @dev Function to determine looser based on reveled rolls of all players and by considering one as wildcard\n     /// looser will loose one dice and starts the next round. If he looses all dice then next player will start the round.\n    function applyGameRules()  internal  {\n         address looser;\n         uint8 looserPos;\n         uint8 numBidFaceFaluesInRoll = rollFaceValues[currentBid.faceValue];\n\n         /// one is wildcard and count towards current bid face value. Do that if bid is not on wildcard value.\n         if (currentBid.faceValue != 1) {\n            numBidFaceFaluesInRoll += rollFaceValues[1]; \n         }\n         /// if we don't have atleast the current bid number of dices then bidder is looser\n         if(numBidFaceFaluesInRoll < currentBid.numDice){\n             looser = playerList[currentBid.playerPos];\n             looserPos = currentBid.playerPos;\n             winnerPlayerPos = turnOfPlayer;\n         }else {\n           looser = playerList[turnOfPlayer];\n           looserPos = turnOfPlayer;\n           winnerPlayerPos = currentBid.playerPos;\n         }\n         players[looser].prevNumDice = players[looser].numDice;\n         players[looser].numDice -= 1;\n         numRound +=1;\n\n         if(players[looser].numDice == 0){\n            players[looser].inGame = false;\n            // nullify this player so updateTurn will go to validate player\n            playerList[players[looser].playerPos] == address(0); \n            numActivePlayers -=1;\n            updateTurn();\n         }else {\n             turnOfPlayer = looserPos; //looser still in game he starts the next round\n         }\n         \n    }\n\n     /// @notice Players join by calling joinGame by sending the gameCost money in msg.value\n    function joinGame () public payable  atStage([Stages.initial, Stages.initial]) {\n        require(players[msg.sender].exists == false, \"Already joined the game\");\n        require(msg.value >= gameCost, \"Not enough money sent to join game\");\n        PlayerInfo storage info = players[msg.sender];\n        playerList.push(msg.sender);\n        info.exists = true;\n        info.inGame = true;\n        info.numDice = numSetDice;\n        info.prevNumDice = numSetDice;\n        if (info.concealedRollFaces.length == 0){\n            info.concealedRollFaces = new bytes32 [](numSetDice);\n        }\n        if (info.revealedRollFaces.length == 0){\n            info.revealedRollFaces = new uint256 [](numSetDice);\n        }\n        info.playerPos = (uint8)(playerList.length) -1;\n        numActivePlayers +=1;\n\n        \n        if(msg.value > gameCost) {\n            info.balance = msg.value - gameCost;\n        }\n        if(playerList.length == numPlayers){\n            stage = Stages.receiveHashedRoll;\n        }\n\n    }\n\n    /// @notice front end app should call this function when stage is receiveHashedRoll after making player roll the dice\n    /// @param hashed: hashed values of player's  all dice face values.\n    function recvHashedRoll(bytes32 [] memory hashed) public  atStage([Stages.receiveHashedRoll, Stages.receiveHashedRoll]) {\n        // emit RecvHashedRoll(msg.sender, hashed[0], hashed[1]);\n        for(uint8 i=0; i<hashed.length; i++){\n           emit RecvHashedRoll(msg.sender, hashed[i], hashed[i]);\n        }\n        require(players[msg.sender].inGame == true, \"You are not part of the game\");\n        require(players[msg.sender].numDice == hashed.length, \"Please send all your dice values\");\n        \n        for(uint8 i=0; i<hashed.length; i++){\n            players[msg.sender].concealedRollFaces[i] = hashed[i];\n        }\n        revealUpdateReady = false;\n        players[msg.sender].prevNumDice = players[msg.sender].numDice;\n        callCount +=1;\n        if(callCount == numActivePlayers){\n            stage = Stages.bid;\n            callCount = 0;\n            currentBid.faceValue = 0;\n            currentBid.numDice = 0;\n        }\n\n    }\n\n    /// @notice front end app should call this function when the stage is bid or bid_challenge \n    /// to send the bid from the player who got the current turn.\n    /// @param faceValue: dice face value\n    /// @param numDice: number of dice in the current game wit that face value.\n    function sendBid(uint8 faceValue, uint8 numDice) public  atStage([Stages.bid, Stages.bid_challenge]) returns(bool) {\n\n        require(players[msg.sender].inGame == true, \"You are not part of the game\");\n        require(playerList[turnOfPlayer] == msg.sender, \"Not your turn to bid\");\n        bool result = validateAndSaveBid(faceValue, numDice);\n        if (result == true) {\n            currentBid.playerPos = turnOfPlayer;\n            stage = Stages.bid_challenge;\n            updateTurn();\n        }\n        return result;\n        // return true;\n\n\n    }\n\n    /// @notice front end app should call this function when the stage is bid_challenge \n    /// if player opted to challenge previous bid \n    function sendChallenge() public  atStage([Stages.bid_challenge, Stages.bid_challenge]) {\n\n        require(players[msg.sender].inGame == true, \"You are not part of the game\");\n        require(playerList[turnOfPlayer] == msg.sender, \"Not your turn\");\n        stage = Stages.challenge;\n    }\n\n    /// @notice front end app should call this function when the stage is challenge\n    /// to reveal all the dice face values of current roll.\n    /// @param faceValue: all dice face values\n    /// @param secret: secret used to come up with hashed value sent before.\n    function sendNonHashedRoll(uint256 [] memory faceValue, uint256 secret) public  atStage([Stages.challenge, Stages.challenge]) {\n        emit SendNonHashedRoll(msg.sender, faceValue.length, secret);\n        for(uint8 i=0; i<faceValue.length; i++){\n           emit SendNonHashedRoll(msg.sender, faceValue[i], faceValue[i]);\n        }\n\n        require(players[msg.sender].inGame == true, \"You are not part of the game\");\n        require(players[msg.sender].numDice == faceValue.length, \"Please send all your dice values\");\n        bool validate = validateReveal(faceValue, secret, players[msg.sender].concealedRollFaces);\n        require( validate == true, \"Your reveal does not match hashed values sent\");\n        if (callCount == 0){\n            for (uint8 i=1; i<7; i++){\n                rollFaceValues[i] = 0;\n            }\n        }\n       \n        for(uint8 i=0; i<faceValue.length; i++){\n            players[msg.sender].revealedRollFaces[i] = faceValue[i];\n            rollFaceValues[faceValue[i]] += 1;\n        }\n        callCount +=1;\n        if(callCount == numActivePlayers){\n            applyGameRules();\n            if (turnOfPlayer == 255){\n                stage = Stages.endGame;\n                turnOfPlayer = 0;\n            }else{\n                stage = Stages.receiveHashedRoll;\n            }\n            callCount = 0;\n            revealUpdateReady = true;\n        }\n\n    }\n    /// @notice front end app should call this to display players that are still in game\n    /// @return returns list of player's ids(positions) that are still in game\n    function getActivePlayerLIst() public view returns(uint8[] memory) {\n        uint8 []  memory activePlayers = new uint8[](playerList.length);\n        uint8 idx = 0;\n        for(uint8 i=0; i<playerList.length; i++){\n            if (playerList[i] != address(0)){\n                activePlayers[idx] = i;\n                idx += 1;\n\n            }\n             \n        }\n        return  activePlayers;\n    }\n\n    /// @notice front end app should call this to display player's dice values after challenge\n    /// @param playerPos: id/pos sent as part of getActivePlayerLIst call should be used \n    /// @return returns list of face values of players dice.\n    function getPlayerReveal(uint8 playerPos) public view returns(uint256 [] memory){\n        require(playerPos < numPlayers, \"Player does not exist\");\n        address player = playerList[playerPos];\n        uint256 [] memory revealVal = new uint256[](players[player].prevNumDice);\n\n        for (uint8 i=0; i<players[player].prevNumDice; i++ ){\n            revealVal[i]= players[player].revealedRollFaces[i];\n        }\n        return revealVal;\n    }\n\n   \n    /// @dev Function that hashes value and secret\n    /// @param value the value of the bid to be hashed\n    /// @param secret the key with which the value is hashed \n    function getHash(uint256 value, uint256 secret) pure internal returns(bytes32) {\n\n       return keccak256(abi.encodePacked(value,secret));\n\n    }\n\n    /// @notice Bid losers call this function to get their money back\n    function withDrawMoney() public atStage([Stages.endGame, Stages.endGame]){\n        PlayerInfo storage info = players[msg.sender];\n        require(info.exists == true, \"Player does not exist in this game\");\n        uint256 returnamount = players[msg.sender].balance;\n        info.balance = 0;\n        info.exists = false;\n        //Require withdrawal not be allowed if no money is owed\n        require(returnamount != 0, \"No Amount is due\");\n        msg.sender.transfer(returnamount);\n        emit WithDrewMoney(msg.sender, returnamount);\n        info.inGame = false;\n        info.numDice = numSetDice;\n        info.prevNumDice = numSetDice;\n        playerList.pop(); // don't care by this time all except one are null address\n        callCount +=1 ;\n        if (callCount == numPlayers){\n            deployer.transfer(address(this).balance);\n            stage = Stages.initial;\n            callCount = 0;\n            revealUpdateReady = false;\n            numActivePlayers = 0;\n        }\n\n    }\n\n    /// @notice  Fallback function to receive any transfers\n    receive() external payable { \n       \n        \n    }\n    \n}",
  "sourcePath": "/home/shaik/BC/dapp/contracts/LiarsDice.sol",
  "compiler": {
    "name": "solc",
    "version": "0.7.1+commit.f4a555be.Emscripten.clang"
  },
  "schemaVersion": "3.2.4",
  "updatedAt": "2020-10-08T05:27:33.837Z",
  "devdoc": {
    "kind": "dev",
    "methods": {
      "balanceof()": {
        "returns": {
          "_0": "returns conntract balance"
        }
      },
      "constructor": {
        "params": {
          "cost": ": amount of wei that each player should pay to play game",
          "noOfPlayers": ": number of players needed to start the game"
        }
      },
      "getActivePlayerLIst()": {
        "returns": {
          "_0": "returns list of player's ids(positions) that are still in game"
        }
      },
      "getCurrentBidInfo()": {
        "returns": {
          "_0": "faceValue: dice face value bid by player numDice: number of dice with that face value playerId: id of the palyer from whom this bid was received."
        }
      },
      "getCurrentRound()": {
        "returns": {
          "_0": "returns round number."
        }
      },
      "getGameCost()": {
        "returns": {
          "_0": "returns amount in wei "
        }
      },
      "getGameStage()": {
        "returns": {
          "_0": "stage: returns current stage of the game as enum.  initial = 0, receiveHashedRoll=1,bid =2,bid_challenge= 3, challenge=4,receiveRevealedRoll=5,endGame=6"
        }
      },
      "getNumActivePlayers()": {
        "returns": {
          "_0": "returns number of players currently  in the game"
        }
      },
      "getPlayerReveal(uint8)": {
        "params": {
          "playerPos": ": id/pos sent as part of getActivePlayerLIst call should be used "
        },
        "returns": {
          "_0": "returns list of face values of players dice."
        }
      },
      "getWinnerPlayerId()": {
        "returns": {
          "_0": "winnerId: return current round winner. when single player is left, this contains game winner. value 255 should be read as None."
        }
      },
      "isRevealUpdateReady()": {
        "returns": {
          "_0": "returns True or false "
        }
      },
      "ismyTurn()": {
        "returns": {
          "_0": "returns if its this player turn. Based on this app should show bid/challenge options to player."
        }
      },
      "recvHashedRoll(bytes32[])": {
        "params": {
          "hashed": ": hashed values of player's  all dice face values."
        }
      },
      "sendBid(uint8,uint8)": {
        "params": {
          "faceValue": ": dice face value",
          "numDice": ": number of dice in the current game wit that face value."
        }
      },
      "sendNonHashedRoll(uint256[],uint256)": {
        "params": {
          "faceValue": ": all dice face values",
          "secret": ": secret used to come up with hashed value sent before."
        }
      }
    },
    "stateVariables": {
      "deployer": {
        "details": "All the money from will be tranfered to this account."
      },
      "gameCost": {
        "details": "the amount each player has to pay to play the game."
      },
      "numActivePlayers": {
        "details": "number of players that are still in the game"
      },
      "numPlayers": {
        "details": "number of players that need to be join to start the game"
      },
      "numRound": {
        "details": "current round number"
      },
      "numSetDice": {
        "details": "number of dice given initially per player"
      },
      "playerList": {
        "details": "players list player at pos 0 will strat the first bid and turns go in clock wise direction."
      },
      "players": {
        "details": "Info associated with players for all players "
      },
      "revealUpdateReady": {
        "details": "app fron end can check this and call functions to other players reveled dice so  that they can  be diplayed to player"
      },
      "rollFaceValues": {
        "details": "stores the number of dice with that face value, updated after getting unHashed face value from each player"
      },
      "stage": {
        "details": "Current stage of the game, fron end apps should call appropriate functions based on stage and display  relavent info to players like showing other players dice after challenge, Ask users to roll, bid/challenge (in addition to getting the turn info)"
      },
      "winnerPlayerPos": {
        "details": "Front end app shows this by concatenating with string player (instead of address show as player 1, player 2 etc)"
      }
    },
    "title": "Contract for Liars Dice single hand version of the game",
    "version": 1
  },
  "userdoc": {
    "kind": "user",
    "methods": {
      "balanceof()": {
        "notice": "Function returns the amount present in the contract address balance. "
      },
      "constructor": {
        "notice": "Constructor initialize default values"
      },
      "getActivePlayerLIst()": {
        "notice": "front end app should call this to display players that are still in game"
      },
      "getCurrentBidInfo()": {
        "notice": "Function Front end app call this function to get current bid information"
      },
      "getCurrentRound()": {
        "notice": "Function Front end app call to diplay current round number ."
      },
      "getGameCost()": {
        "notice": "Function Front end app call to diplay amount player has to pay to enter the game.    "
      },
      "getGameStage()": {
        "notice": "Function Front end app call to get game stage."
      },
      "getNumActivePlayers()": {
        "notice": "Function Front end app call to see number of players that are still in the game "
      },
      "getPlayerReveal(uint8)": {
        "notice": "front end app should call this to display player's dice values after challenge"
      },
      "getWinnerPlayerId()": {
        "notice": "Function Front end app call this function to show winner. shows this by concatenating with string player (instead of address, player 1 , player 2 will be shown)"
      },
      "isRevealUpdateReady()": {
        "notice": "Function Front end app call this function to see if all the players  revealed their roll after a challenge. And can call getActivePlayerLIst and getPlayerReveal to update dashboard."
      },
      "ismyTurn()": {
        "notice": "Function Front end app call to check the turn."
      },
      "joinGame()": {
        "notice": "Players join by calling joinGame by sending the gameCost money in msg.value"
      },
      "recvHashedRoll(bytes32[])": {
        "notice": "front end app should call this function when stage is receiveHashedRoll after making player roll the dice"
      },
      "sendBid(uint8,uint8)": {
        "notice": "front end app should call this function when the stage is bid or bid_challenge  to send the bid from the player who got the current turn."
      },
      "sendChallenge()": {
        "notice": "front end app should call this function when the stage is bid_challenge  if player opted to challenge previous bid "
      },
      "sendNonHashedRoll(uint256[],uint256)": {
        "notice": "front end app should call this function when the stage is challenge to reveal all the dice face values of current roll."
      },
      "withDrawMoney()": {
        "notice": "Bid losers call this function to get their money back"
      }
    },
    "version": 1
  }
}