{
  "contractName": "LiarsDice",
  "abi": [
    {
      "inputs": [],
      "payable": false,
      "stateMutability": "nonpayable",
      "type": "constructor"
    },
    {
      "anonymous": false,
      "inputs": [
        {
          "indexed": false,
          "internalType": "uint256",
          "name": "_bidFaceValue",
          "type": "uint256"
        },
        {
          "indexed": false,
          "internalType": "uint8",
          "name": "_bidNumDice",
          "type": "uint8"
        },
        {
          "indexed": false,
          "internalType": "uint8",
          "name": "_newNumDice",
          "type": "uint8"
        },
        {
          "indexed": false,
          "internalType": "uint256",
          "name": "_newFaceValue",
          "type": "uint256"
        }
      ],
      "name": "BidInfo",
      "type": "event"
    },
    {
      "anonymous": false,
      "inputs": [
        {
          "indexed": true,
          "internalType": "address",
          "name": "_from",
          "type": "address"
        },
        {
          "indexed": false,
          "internalType": "uint256",
          "name": "value",
          "type": "uint256"
        }
      ],
      "name": "WithDrewMoney",
      "type": "event"
    },
    {
      "constant": true,
      "inputs": [],
      "name": "currentBid",
      "outputs": [
        {
          "internalType": "uint8",
          "name": "faceValue",
          "type": "uint8"
        },
        {
          "internalType": "uint8",
          "name": "numDice",
          "type": "uint8"
        },
        {
          "internalType": "address",
          "name": "playeradd",
          "type": "address"
        }
      ],
      "payable": false,
      "stateMutability": "view",
      "type": "function"
    },
    {
      "constant": true,
      "inputs": [],
      "name": "currentturn",
      "outputs": [
        {
          "internalType": "address",
          "name": "",
          "type": "address"
        }
      ],
      "payable": false,
      "stateMutability": "view",
      "type": "function"
    },
    {
      "constant": true,
      "inputs": [],
      "name": "currentturnno",
      "outputs": [
        {
          "internalType": "uint256",
          "name": "",
          "type": "uint256"
        }
      ],
      "payable": false,
      "stateMutability": "view",
      "type": "function"
    },
    {
      "constant": true,
      "inputs": [],
      "name": "isGameEnded",
      "outputs": [
        {
          "internalType": "uint8",
          "name": "",
          "type": "uint8"
        }
      ],
      "payable": false,
      "stateMutability": "view",
      "type": "function"
    },
    {
      "constant": true,
      "inputs": [],
      "name": "isSubmitted",
      "outputs": [
        {
          "internalType": "bool",
          "name": "",
          "type": "bool"
        }
      ],
      "payable": false,
      "stateMutability": "view",
      "type": "function"
    },
    {
      "constant": true,
      "inputs": [],
      "name": "numActivePlayers",
      "outputs": [
        {
          "internalType": "uint8",
          "name": "",
          "type": "uint8"
        }
      ],
      "payable": false,
      "stateMutability": "view",
      "type": "function"
    },
    {
      "constant": true,
      "inputs": [],
      "name": "numPaid",
      "outputs": [
        {
          "internalType": "uint8",
          "name": "",
          "type": "uint8"
        }
      ],
      "payable": false,
      "stateMutability": "view",
      "type": "function"
    },
    {
      "constant": true,
      "inputs": [],
      "name": "numPlayers",
      "outputs": [
        {
          "internalType": "uint8",
          "name": "",
          "type": "uint8"
        }
      ],
      "payable": false,
      "stateMutability": "view",
      "type": "function"
    },
    {
      "constant": true,
      "inputs": [],
      "name": "numSetDice",
      "outputs": [
        {
          "internalType": "uint8",
          "name": "",
          "type": "uint8"
        }
      ],
      "payable": false,
      "stateMutability": "view",
      "type": "function"
    },
    {
      "constant": true,
      "inputs": [
        {
          "internalType": "address",
          "name": "",
          "type": "address"
        }
      ],
      "name": "players",
      "outputs": [
        {
          "internalType": "bool",
          "name": "exists",
          "type": "bool"
        },
        {
          "internalType": "bool",
          "name": "inGame",
          "type": "bool"
        },
        {
          "internalType": "uint8",
          "name": "numDice",
          "type": "uint8"
        },
        {
          "internalType": "uint8",
          "name": "prevNumDice",
          "type": "uint8"
        },
        {
          "internalType": "uint8",
          "name": "playerPos",
          "type": "uint8"
        },
        {
          "internalType": "uint256",
          "name": "balance",
          "type": "uint256"
        }
      ],
      "payable": false,
      "stateMutability": "view",
      "type": "function"
    },
    {
      "constant": true,
      "inputs": [],
      "name": "turnOfPlayer",
      "outputs": [
        {
          "internalType": "uint8",
          "name": "",
          "type": "uint8"
        }
      ],
      "payable": false,
      "stateMutability": "view",
      "type": "function"
    },
    {
      "constant": true,
      "inputs": [],
      "name": "winningPlayer",
      "outputs": [
        {
          "internalType": "uint8",
          "name": "playerNo",
          "type": "uint8"
        },
        {
          "internalType": "address",
          "name": "playeradd",
          "type": "address"
        }
      ],
      "payable": false,
      "stateMutability": "view",
      "type": "function"
    },
    {
      "constant": false,
      "inputs": [
        {
          "internalType": "uint8",
          "name": "no_players",
          "type": "uint8"
        },
        {
          "internalType": "uint8",
          "name": "no_dice",
          "type": "uint8"
        }
      ],
      "name": "setPD",
      "outputs": [],
      "payable": false,
      "stateMutability": "nonpayable",
      "type": "function"
    },
    {
      "constant": false,
      "inputs": [],
      "name": "Challenge",
      "outputs": [],
      "payable": false,
      "stateMutability": "nonpayable",
      "type": "function"
    },
    {
      "constant": false,
      "inputs": [
        {
          "internalType": "uint8",
          "name": "numDice",
          "type": "uint8"
        },
        {
          "internalType": "uint8",
          "name": "faceValue",
          "type": "uint8"
        }
      ],
      "name": "Bet",
      "outputs": [],
      "payable": false,
      "stateMutability": "nonpayable",
      "type": "function"
    },
    {
      "constant": false,
      "inputs": [],
      "name": "DiceShuffle",
      "outputs": [],
      "payable": false,
      "stateMutability": "nonpayable",
      "type": "function"
    },
    {
      "constant": false,
      "inputs": [],
      "name": "setRolledDice",
      "outputs": [],
      "payable": false,
      "stateMutability": "nonpayable",
      "type": "function"
    },
    {
      "constant": true,
      "inputs": [],
      "name": "getRolledDice",
      "outputs": [
        {
          "internalType": "uint256[]",
          "name": "",
          "type": "uint256[]"
        }
      ],
      "payable": false,
      "stateMutability": "view",
      "type": "function"
    },
    {
      "constant": false,
      "inputs": [],
      "name": "initialpay",
      "outputs": [],
      "payable": true,
      "stateMutability": "payable",
      "type": "function"
    }
  ],
  "bytecode": "0x608060405260066000806101000a81548160ff021916908360ff16021790555060008060016101000a81548160ff021916908360ff16021790555060008060026101000a81548161ffff021916908361ffff16021790555033600260006101000a81548173ffffffffffffffffffffffffffffffffffffffff021916908373ffffffffffffffffffffffffffffffffffffffff16021790555060028060146101000a81548160ff021916908360ff1602179055506000600260156101000a81548160ff021916908360ff1602179055506000600260166101000a81548160ff0219169083151502179055506000600260176101000a81548160ff021916908360ff1602179055506000600460006101000a81548160ff021916908360ff16021790555060006005556000600660006101000a81548173ffffffffffffffffffffffffffffffffffffffff021916908373ffffffffffffffffffffffffffffffffffffffff1602179055506000600960006101000a81548160ff021916908360ff1602179055503480156200019257600080fd5b506000600260146101000a81548160ff021916908360ff16021790555060016008819055506000600d60006101000a81548160ff02191690836005811115620001d757fe5b02179055506000600260186101000a81548160ff021916908360ff1602179055506000600a60000160006101000a81548160ff021916908360ff1602179055506000600a60000160016101000a81548160ff021916908360ff16021790555060ff600960016101000a81548160ff021916908360ff1602179055506000600160000160016101000a81548173ffffffffffffffffffffffffffffffffffffffff021916908373ffffffffffffffffffffffffffffffffffffffff16021790555060ff600160000160006101000a81548160ff021916908360ff1602179055506040518060200160405280600060ff168152506003906001620002db929190620002e2565b5062000361565b82805482825590600052602060002090810192821562000326579160200282015b8281111562000325578251829060ff1690559160200191906001019062000303565b5b50905062000335919062000339565b5090565b6200035e91905b808211156200035a57600081600090555060010162000340565b5090565b90565b611f4b80620003716000396000f3fe6080604052600436106101145760003560e01c8063a0f4a9a9116100a0578063def1810111610064578063def18101146103d7578063e0fdd70914610448578063e2eb41ff14610479578063f76dc4381461051b578063fb882b101461058757610114565b8063a0f4a9a91461033d578063aa268fd714610354578063b125512e1461035e578063c085ecc81461038f578063cae1bab8146103c057610114565b80636851ee44116100e75780636851ee4414610210578063703d45a0146102675780637078796e146102b2578063741b8790146102dd57806397b2f5561461030c57610114565b80632bdcc167146101195780632da3db2a1461014a5780635ad39846146101615780636287140e146101c5575b600080fd5b34801561012557600080fd5b5061012e6105b8565b604051808260ff1660ff16815260200191505060405180910390f35b34801561015657600080fd5b5061015f6105cb565b005b34801561016d57600080fd5b5061017661088e565b604051808360ff1660ff1681526020018273ffffffffffffffffffffffffffffffffffffffff1673ffffffffffffffffffffffffffffffffffffffff1681526020019250505060405180910390f35b3480156101d157600080fd5b5061020e600480360360408110156101e857600080fd5b81019080803560ff169060200190929190803560ff1690602001909291905050506108cd565b005b34801561021c57600080fd5b50610225610a79565b604051808273ffffffffffffffffffffffffffffffffffffffff1673ffffffffffffffffffffffffffffffffffffffff16815260200191505060405180910390f35b34801561027357600080fd5b506102b06004803603604081101561028a57600080fd5b81019080803560ff169060200190929190803560ff169060200190929190505050610a9f565b005b3480156102be57600080fd5b506102c7610b2b565b6040518082815260200191505060405180910390f35b3480156102e957600080fd5b506102f2610b31565b604051808215151515815260200191505060405180910390f35b34801561031857600080fd5b50610321610b44565b604051808260ff1660ff16815260200191505060405180910390f35b34801561034957600080fd5b50610352610b57565b005b61035c61120a565b005b34801561036a57600080fd5b5061037361172f565b604051808260ff1660ff16815260200191505060405180910390f35b34801561039b57600080fd5b506103a4611742565b604051808260ff1660ff16815260200191505060405180910390f35b3480156103cc57600080fd5b506103d5611755565b005b3480156103e357600080fd5b506103ec6117aa565b604051808460ff1660ff1681526020018360ff1660ff1681526020018273ffffffffffffffffffffffffffffffffffffffff1673ffffffffffffffffffffffffffffffffffffffff168152602001935050505060405180910390f35b34801561045457600080fd5b5061045d6117fc565b604051808260ff1660ff16815260200191505060405180910390f35b34801561048557600080fd5b506104c86004803603602081101561049c57600080fd5b81019080803573ffffffffffffffffffffffffffffffffffffffff16906020019092919050505061180e565b6040518087151515158152602001861515151581526020018560ff1660ff1681526020018460ff1660ff1681526020018360ff1660ff168152602001828152602001965050505050505060405180910390f35b34801561052757600080fd5b5061053061188b565b6040518080602001828103825283818151815260200191508051906020019060200280838360005b83811015610573578082015181840152602081019050610558565b505050509050019250505060405180910390f35b34801561059357600080fd5b5061059c611992565b604051808260ff1660ff16815260200191505060405180910390f35b600060019054906101000a900460ff1681565b600b6000815481106105d957fe5b9060005260206000200160009054906101000a900473ffffffffffffffffffffffffffffffffffffffff16600660006101000a81548173ffffffffffffffffffffffffffffffffffffffff021916908373ffffffffffffffffffffffffffffffffffffffff16021790555060006005819055506000809050600090505b600b805490508160ff16101561088b576000809050600090505b6000809054906101000a900460ff1660ff168160ff16101561087d57600c6000600b8460ff16815481106106a057fe5b9060005260206000200160009054906101000a900473ffffffffffffffffffffffffffffffffffffffff1673ffffffffffffffffffffffffffffffffffffffff1673ffffffffffffffffffffffffffffffffffffffff16815260200190815260200160002060000160029054906101000a900460ff1660ff168160ff16106107c1576000600c6000600b8560ff168154811061073857fe5b9060005260206000200160009054906101000a900473ffffffffffffffffffffffffffffffffffffffff1673ffffffffffffffffffffffffffffffffffffffff1673ffffffffffffffffffffffffffffffffffffffff1681526020019081526020016000206002018260ff16815481106107ae57fe5b9060005260206000200181905550610870565b600160066107ce336119a5565b816107d557fe5b0601600c6000600b8560ff16815481106107eb57fe5b9060005260206000200160009054906101000a900473ffffffffffffffffffffffffffffffffffffffff1673ffffffffffffffffffffffffffffffffffffffff1673ffffffffffffffffffffffffffffffffffffffff1681526020019081526020016000206002018260ff168154811061086157fe5b90600052602060002001819055505b8080600101915050610670565b508080600101915050610656565b50565b60018060000160009054906101000a900460ff16908060000160019054906101000a900473ffffffffffffffffffffffffffffffffffffffff16905082565b81600260146101000a81548160ff021916908360ff1602179055506001600260166101000a81548160ff0219169083151502179055506000809050600090505b8260ff168160ff161015610a525781600c6000600b8460ff168154811061093057fe5b9060005260206000200160009054906101000a900473ffffffffffffffffffffffffffffffffffffffff1673ffffffffffffffffffffffffffffffffffffffff1673ffffffffffffffffffffffffffffffffffffffff16815260200190815260200160002060000160026101000a81548160ff021916908360ff16021790555081600c6000600b8460ff16815481106109c557fe5b9060005260206000200160009054906101000a900473ffffffffffffffffffffffffffffffffffffffff1673ffffffffffffffffffffffffffffffffffffffff1673ffffffffffffffffffffffffffffffffffffffff16815260200190815260200160002060000160036101000a81548160ff021916908360ff160217905550808060010191505061090d565b610a5a6105cb565b816000806101000a81548160ff021916908360ff160217905550505050565b600660009054906101000a900473ffffffffffffffffffffffffffffffffffffffff1681565b81600a60000160016101000a81548160ff021916908360ff16021790555080600a60000160006101000a81548160ff021916908360ff16021790555033600a60000160026101000a81548173ffffffffffffffffffffffffffffffffffffffff021916908373ffffffffffffffffffffffffffffffffffffffff160217905550610b27611a6b565b5050565b60055481565b600260169054906101000a900460ff1681565b600260149054906101000a900460ff1681565b6000600a60000160029054906101000a900473ffffffffffffffffffffffffffffffffffffffff169050600080905060008090506000600a60000160009054906101000a900460ff169050600092505b600b805490508360ff161015610d0c576000809050600090505b600c6000600b8660ff1681548110610bd557fe5b9060005260206000200160009054906101000a900473ffffffffffffffffffffffffffffffffffffffff1673ffffffffffffffffffffffffffffffffffffffff1673ffffffffffffffffffffffffffffffffffffffff168152602001908152602001600020600201805490508160ff161015610cfe578160ff16600c6000600b8760ff1681548110610c6357fe5b9060005260206000200160009054906101000a900473ffffffffffffffffffffffffffffffffffffffff1673ffffffffffffffffffffffffffffffffffffffff1673ffffffffffffffffffffffffffffffffffffffff1681526020019081526020016000206002018260ff1681548110610cd957fe5b90600052602060002001541415610cf1576001830192505b8080600101915050610bc1565b508280600101935050610ba7565b600a60000160019054906101000a900460ff1660ff168261ffff1610610f2e57600c60003373ffffffffffffffffffffffffffffffffffffffff1673ffffffffffffffffffffffffffffffffffffffff16815260200190815260200160002060000160029054906101000a900460ff16600c60003373ffffffffffffffffffffffffffffffffffffffff1673ffffffffffffffffffffffffffffffffffffffff16815260200190815260200160002060000160036101000a81548160ff021916908360ff1602179055506001600c60003373ffffffffffffffffffffffffffffffffffffffff1673ffffffffffffffffffffffffffffffffffffffff16815260200190815260200160002060000160028282829054906101000a900460ff160392506101000a81548160ff021916908360ff1602179055506000600c60003373ffffffffffffffffffffffffffffffffffffffff1673ffffffffffffffffffffffffffffffffffffffff16815260200190815260200160002060000160029054906101000a900460ff1660ff161415610f29576000600c60003373ffffffffffffffffffffffffffffffffffffffff1673ffffffffffffffffffffffffffffffffffffffff16815260200190815260200160002060000160016101000a81548160ff0219169083151502179055506001600260158282829054906101000a900460ff160392506101000a81548160ff021916908360ff1602179055505b61112c565b600c60008573ffffffffffffffffffffffffffffffffffffffff1673ffffffffffffffffffffffffffffffffffffffff16815260200190815260200160002060000160029054906101000a900460ff16600c60008673ffffffffffffffffffffffffffffffffffffffff1673ffffffffffffffffffffffffffffffffffffffff16815260200190815260200160002060000160036101000a81548160ff021916908360ff1602179055506001600c60008673ffffffffffffffffffffffffffffffffffffffff1673ffffffffffffffffffffffffffffffffffffffff16815260200190815260200160002060000160028282829054906101000a900460ff160392506101000a81548160ff021916908360ff1602179055506000600c60008673ffffffffffffffffffffffffffffffffffffffff1673ffffffffffffffffffffffffffffffffffffffff16815260200190815260200160002060000160029054906101000a900460ff1660ff16141561112b576000600c60008673ffffffffffffffffffffffffffffffffffffffff1673ffffffffffffffffffffffffffffffffffffffff16815260200190815260200160002060000160016101000a81548160ff0219169083151502179055506001600260158282829054906101000a900460ff160392506101000a81548160ff021916908360ff1602179055505b5b6001600260159054906101000a900460ff1660ff1614156111545761114f611bbf565b611204565b6040518060200160405280600060ff168152506007906001611177929190611dde565b506000600a60000160016101000a81548160ff021916908360ff1602179055506000600a60000160006101000a81548160ff021916908360ff1602179055506000600a60000160026101000a81548173ffffffffffffffffffffffffffffffffffffffff021916908373ffffffffffffffffffffffffffffffffffffffff1602179055506112036105cb565b5b50505050565b60001515600c60003373ffffffffffffffffffffffffffffffffffffffff1673ffffffffffffffffffffffffffffffffffffffff16815260200190815260200160002060000160009054906101000a900460ff161515146112d3576040517f08c379a00000000000000000000000000000000000000000000000000000000081526004018080602001828103825260178152602001807f416c7265616479206a6f696e6564207468652067616d6500000000000000000081525060200191505060405180910390fd5b60085434101561132e576040517f08c379a0000000000000000000000000000000000000000000000000000000008152600401808060200182810382526022815260200180611ef56022913960400191505060405180910390fd5b600b3390806001815401808255809150509060018203906000526020600020016000909192909190916101000a81548173ffffffffffffffffffffffffffffffffffffffff021916908373ffffffffffffffffffffffffffffffffffffffff160217905550506001600c60003373ffffffffffffffffffffffffffffffffffffffff1673ffffffffffffffffffffffffffffffffffffffff16815260200190815260200160002060000160006101000a81548160ff0219169083151502179055506001600c60003373ffffffffffffffffffffffffffffffffffffffff1673ffffffffffffffffffffffffffffffffffffffff16815260200190815260200160002060000160016101000a81548160ff0219169083151502179055506000809054906101000a900460ff16600c60003373ffffffffffffffffffffffffffffffffffffffff1673ffffffffffffffffffffffffffffffffffffffff16815260200190815260200160002060000160026101000a81548160ff021916908360ff1602179055506000809054906101000a900460ff16600c60003373ffffffffffffffffffffffffffffffffffffffff1673ffffffffffffffffffffffffffffffffffffffff16815260200190815260200160002060000160036101000a81548160ff021916908360ff1602179055506000600c60003373ffffffffffffffffffffffffffffffffffffffff1673ffffffffffffffffffffffffffffffffffffffff168152602001908152602001600020600201805490501415611602576000809054906101000a900460ff1660ff166040519080825280602002602001820160405280156115aa5781602001602082028038833980820191505090505b50600c60003373ffffffffffffffffffffffffffffffffffffffff1673ffffffffffffffffffffffffffffffffffffffff1681526020019081526020016000206002019080519060200190611600929190611e30565b505b6001600b8054905003600c60003373ffffffffffffffffffffffffffffffffffffffff1673ffffffffffffffffffffffffffffffffffffffff16815260200190815260200160002060000160046101000a81548160ff021916908360ff1602179055506001600260158282829054906101000a900460ff160192506101000a81548160ff021916908360ff1602179055506008543411156116e9576008543403600c60003373ffffffffffffffffffffffffffffffffffffffff1673ffffffffffffffffffffffffffffffffffffffff168152602001908152602001600020600101819055505b600260149054906101000a900460ff1660ff16600b80549050141561172d576001600d60006101000a81548160ff0219169083600581111561172757fe5b02179055505b565b600260189054906101000a900460ff1681565b600460009054906101000a900460ff1681565b600c60003373ffffffffffffffffffffffffffffffffffffffff1673ffffffffffffffffffffffffffffffffffffffff16815260200190815260200160002060020160079080546117a7929190611e7d565b50565b600a8060000160009054906101000a900460ff16908060000160019054906101000a900460ff16908060000160029054906101000a900473ffffffffffffffffffffffffffffffffffffffff16905083565b6000809054906101000a900460ff1681565b600c6020528060005260406000206000915090508060000160009054906101000a900460ff16908060000160019054906101000a900460ff16908060000160029054906101000a900460ff16908060000160039054906101000a900460ff16908060000160049054906101000a900460ff16908060010154905086565b6060600660009054906101000a900473ffffffffffffffffffffffffffffffffffffffff1673ffffffffffffffffffffffffffffffffffffffff163373ffffffffffffffffffffffffffffffffffffffff16141561193b57600780548060200260200160405190810160405280929190818152602001828054801561192f57602002820191906000526020600020905b81548152602001906001019080831161191b575b5050505050905061198f565b600380548060200260200160405190810160405280929190818152602001828054801561198757602002820191906000526020600020905b815481526020019060010190808311611973575b505050505090505b90565b600260159054906101000a900460ff1681565b60006001600060028282829054906101000a900461ffff160192506101000a81548161ffff021916908361ffff1602179055504442600060029054906101000a900461ffff1684604051602001808581526020018481526020018361ffff1661ffff1660f01b81526002018273ffffffffffffffffffffffffffffffffffffffff1673ffffffffffffffffffffffffffffffffffffffff1660601b81526014019450505050506040516020818303038152906040528051906020012060001c9050919050565b60016005600082825401925050819055506040518060200160405280600060ff168152506007906001611a9f929190611dde565b50600b805490506005600082825481611ab457fe5b0692505081905550600b60055481548110611acb57fe5b9060005260206000200160009054906101000a900473ffffffffffffffffffffffffffffffffffffffff16600660006101000a81548173ffffffffffffffffffffffffffffffffffffffff021916908373ffffffffffffffffffffffffffffffffffffffff16021790555060001515600c6000600660009054906101000a900473ffffffffffffffffffffffffffffffffffffffff1673ffffffffffffffffffffffffffffffffffffffff1673ffffffffffffffffffffffffffffffffffffffff16815260200190815260200160002060000160019054906101000a900460ff1615151415611bbd57611bbc611a6b565b5b565b60008090506000600b600081548110611bd457fe5b9060005260206000200160009054906101000a900473ffffffffffffffffffffffffffffffffffffffff169050600091505b600b805490508260ff161015611d185760011515600c6000600b8560ff1681548110611c2e57fe5b9060005260206000200160009054906101000a900473ffffffffffffffffffffffffffffffffffffffff1673ffffffffffffffffffffffffffffffffffffffff1673ffffffffffffffffffffffffffffffffffffffff16815260200190815260200160002060000160019054906101000a900460ff1615151415611d0b57600b8260ff1681548110611cbc57fe5b9060005260206000200160009054906101000a900473ffffffffffffffffffffffffffffffffffffffff16905060018201600160000160006101000a81548160ff021916908360ff1602179055505b8180600101925050611c06565b80600160000160016101000a81548173ffffffffffffffffffffffffffffffffffffffff021916908373ffffffffffffffffffffffffffffffffffffffff1602179055506002600460006101000a81548160ff021916908360ff16021790555060006001600260149054906101000a900460ff160290508173ffffffffffffffffffffffffffffffffffffffff166108fc8260ff169081150290604051600060405180830381858888f19350505050158015611dd8573d6000803e3d6000fd5b50505050565b828054828255906000526020600020908101928215611e1f579160200282015b82811115611e1e578251829060ff16905591602001919060010190611dfe565b5b509050611e2c9190611ecf565b5090565b828054828255906000526020600020908101928215611e6c579160200282015b82811115611e6b578251825591602001919060010190611e50565b5b509050611e799190611ecf565b5090565b828054828255906000526020600020908101928215611ebe5760005260206000209182015b82811115611ebd578254825591600101919060010190611ea2565b5b509050611ecb9190611ecf565b5090565b611ef191905b80821115611eed576000816000905550600101611ed5565b5090565b9056fe4e6f7420656e6f756768206d6f6e65792073656e7420746f206a6f696e2067616d65a265627a7a723158200188e0f0c6dbce6d932b54b5f44172bafab1432c4508d0720e8b01c0e95b2cd164736f6c63430005100032",
  "source": "// SPDX-License-Identifier: MIT\npragma solidity >=0.4.22 <0.8.0;\n\n/// @title Contract for Liars Dice single hand version of the game\n\ncontract LiarsDice {\n\n    /// @dev number of dice given initially per player\n    uint8 public numSetDice = 6;\n\n    /// @dev number of players who have paid so far\n    uint8 public numPaid = 0;\n\n    /// @dev dummy value for random number generation\n    uint16 ninfi = 0;\n\n    /// @dev various possible stages of the game\n    enum Stages\n    {\n        initial,\n        roll,\n        bid,\n        bid_challenge,\n        challenge,\n        endGame\n    }\n\n\n    /// @dev player bids by specifying the face value  and the number of dice with that face  value\n    struct bidInfo {\n        uint8 faceValue;\n        uint8 numDice;\n        address playeradd;\n    }\n\n    /// @dev Winner of the game\n    struct finalWinner {\n        uint8 playerNo;\n        address playeradd;\n    } \n    finalWinner public winningPlayer;\n  \n    struct PlayerInfo {\n         bool exists;\n         bool inGame;\n         uint8 numDice;\n         uint8 prevNumDice;\n         uint8 playerPos;    \n         uint256 balance; \n         uint256 [] RollFaces;\n    }\n\n    /// @dev All the money from will be tranfered to this account.\n    address payable deployer = msg.sender;\n\n    /// @dev number of players that need to be join to start the game\n    uint8 public numPlayers =2;\n\n    /// @dev number of players that are still in the game\n    uint8 public numActivePlayers = 0;\n\n    //uint8[] public numDiceList;\n\n    bool public isSubmitted = false;\n\n    /// @dev current round number\n    uint8  numRound=0;\n    uint8 public turnOfPlayer;\n    \n    uint256[] dummyVal;\n\n    /// @dev stores if the game has ended\n    uint8 public isGameEnded = 0;\n\n    /// @dev stores the player number whose turn it is currently\n    uint256 public currentturnno = 0;\n\n    /// @dev stores the player address whose turn it is currently\n    address public currentturn = address(0);\n\n    /// @dev variable used to return faces\n    uint256[] Facesreturn;\n\n    /// @dev the amount each player has to pay to play the game.\n    uint256  gameCost;\n\n    uint8 callCount=0;\n    /// @dev Front end app shows this by concatenating with string player (instead of address show as player 1, player 2 etc)\n    uint8  winnerPlayerPos;\n\n    /// @dev stores the information about the current bid\n    bidInfo public currentBid;\n\n    /// @dev players list player at pos 0 will strat the first bid and turns go in clock wise direction.\n    address payable [] playerList;\n\n    /// @dev Info associated with players for all players \n    mapping(address => PlayerInfo) public players;\n\n    /// @dev Current stage of the game, fron end apps should call appropriate functions based on stage and display \n    /// relavent info to players like showing other players dice after challenge, Ask users to roll, bid/challenge\n    /// (in addition to getting the turn info)\n    Stages stage;\n\n\n    /// @dev stores the number of dice with that face value, updated after getting unHashed face value from each player\n    mapping(uint256 => uint8)rollFaceValues;\n\n    event WithDrewMoney(\n        address indexed _from,\n        uint256 value\n\n    );\n\n     event BidInfo(\n        uint256 _bidFaceValue,\n        uint8 _bidNumDice,\n        uint8 _newNumDice,\n        uint256 _newFaceValue\n    );\n\n   \n    /// @notice Constructor initialize default values\n    constructor ()  public {\n        numPlayers = 0;\n        gameCost = 1;\n        //numDiceList = [0];\n        stage = Stages.initial;\n        turnOfPlayer = 0;\n        currentBid.faceValue = 0;\n        currentBid.numDice = 0;\n        winnerPlayerPos = 255;\n        winningPlayer.playeradd = address(0);\n        winningPlayer.playerNo = 255; \n        dummyVal = [0];\n    }\n\n    /// @dev function used to set the number of players and number of dice, in addition, shuffles the dice\n    /// @param no_players is the the number of players\n    /// @param no_dice is the number of dice\n    function setPD(uint8 no_players, uint8 no_dice) public {\n        numPlayers = no_players;\n        isSubmitted = true;\n        uint8 j = 0;\n        for(j=0;j<no_players;j++){\n            players[playerList[j]].numDice = no_dice;\n            players[playerList[j]].prevNumDice = no_dice;\n            //players[playerList[j]].RollFaces = new uint256 [](numSetDice);\n        }\n        DiceShuffle();\n        numSetDice = no_dice;\n    }\n\n    /// @dev function used to update the turn\n    /// @return turnOfPlayer which player has to move\n    function updateTurn()  internal returns(uint8) {\n        if( numActivePlayers == 1){\n            turnOfPlayer = 255;\n            return turnOfPlayer;\n        }\n        uint8 origTurn = turnOfPlayer;\n        turnOfPlayer += 1;\n        if(turnOfPlayer >= numPlayers){\n           turnOfPlayer = 0; \n        }\n        if(turnOfPlayer == origTurn){\n           turnOfPlayer = 255; \n        }\n        while(playerList[turnOfPlayer] == address(0)){\n            turnOfPlayer += 1;\n\n            if (turnOfPlayer >= numPlayers){\n                turnOfPlayer = 0;\n            }\n            if(turnOfPlayer == origTurn){\n               turnOfPlayer = 255; \n               break;\n            }\n        }\n        \n        return turnOfPlayer;\n    }\n\n    /// @dev updates the addresses and facevalues of the player whose turn it is currently\n    function updatecurrentturn() internal {\n        currentturnno += 1;\n        Facesreturn = [0];\n        currentturnno %= playerList.length;\n        currentturn = playerList[currentturnno];\n        if(players[currentturn].inGame == false)\n        {\n            updatecurrentturn();\n        }\n    }\n\n    /// @dev generates random number\n    /// @param sender is the address of the player\n    function random(address sender) private returns(uint){\n        ninfi += 1;\n        return uint(keccak256(abi.encodePacked(block.difficulty, block.timestamp,ninfi,sender)));\n    }\n\n    /// @dev function that is called when a challenge is made to a player\n    function Challenge() public {\n        address challengedplayer = currentBid.playeradd;\n        uint8 j = 0;\n        uint16 facecount = 0;\n        uint8 face = currentBid.faceValue;\n        for( j =0; j<playerList.length; j++){\n            uint8 i = 0;\n            for(i = 0; i<players[playerList[j]].RollFaces.length; i++){\n                if(players[playerList[j]].RollFaces[i]==face)\n                    facecount += 1;\n            }\n        }\n        if(facecount >= currentBid.numDice){\n            players[msg.sender].prevNumDice = players[msg.sender].numDice;\n            players[msg.sender].numDice -= 1; \n            if(players[msg.sender].numDice == 0){\n                players[msg.sender].inGame = false;\n                numActivePlayers -= 1;\n            }\n        }\n        else{\n            players[challengedplayer].prevNumDice = players[challengedplayer].numDice;\n            players[challengedplayer].numDice -= 1; \n            if(players[challengedplayer].numDice == 0){\n                players[challengedplayer].inGame = false;\n                numActivePlayers -= 1;\n            }\n        }\n        if(numActivePlayers == 1){\n            endGame();\n        }\n        else {\n            Facesreturn = [0];\n            currentBid.numDice = 0;\n            currentBid.faceValue = 0;\n            currentBid.playeradd = address(0);\n            DiceShuffle();\n        }\n\n    }\n    /// @dev function that is called when a bet is made\n    /// @param numDice are the number of Dice that are called in the bet\n    /// @param faceValue is the the value of the face that is called in the bet\n    function Bet(uint8 numDice, uint8 faceValue) public {\n        currentBid.numDice = numDice;\n        currentBid.faceValue = faceValue;\n        currentBid.playeradd = msg.sender;\n        updatecurrentturn();\n    }\n\n    /// @dev function that is used to shuffle and randomly generate the dice\n    function DiceShuffle() public {\n        currentturn = playerList[0];\n        currentturnno = 0;\n        uint8 j = 0;\n        for( j = 0; j<playerList.length;j++){\n            uint8 i = 0;\n            for(i = 0; i < numSetDice; i++){\n                if(i>=players[playerList[j]].numDice){\n                    players[playerList[j]].RollFaces[i] = 0 ;\n                }\n                else{\n                    players[playerList[j]].RollFaces[i] = (random(msg.sender)%6)+1; //Random Generator\n                }\n            }\n        }\n    }\n\n    /// @dev function that sets Facesreturn to the appropriate value\n    function setRolledDice() public {\n        Facesreturn = players[msg.sender].RollFaces;\n    }\n\n    /// @dev function that returns either facesreturn or returns a dummy value\n    function getRolledDice() public view returns(uint256 [] memory) {\n        if (msg.sender == currentturn)\n            return Facesreturn;\n        else return dummyVal;\n    }\n\n    /// @dev initial payment made by the players\n    function initialpay() public payable {\n        require(players[msg.sender].exists == false, \"Already joined the game\");\n        require(msg.value >= gameCost, \"Not enough money sent to join game\");\n        playerList.push(msg.sender);\n        players[msg.sender].exists = true;\n        players[msg.sender].inGame = true;\n        players[msg.sender].numDice = numSetDice;\n        players[msg.sender].prevNumDice = numSetDice;\n\n        if (players[msg.sender].RollFaces.length == 0){\n            players[msg.sender].RollFaces = new uint256 [](numSetDice);\n        }\n        players[msg.sender].playerPos = (uint8)(playerList.length) -1;\n        numActivePlayers +=1;\n\n        if(msg.value > gameCost) {\n            players[msg.sender].balance = msg.value - gameCost;\n        }\n        if(playerList.length == numPlayers){\n            stage = Stages.roll;\n        }\n    }\n\n    /// @dev function to check for application of game rules\n    function applyGameRules() internal {\n         address loser;\n         uint8 loserPos;\n         uint8 numBidFaceFaluesInRoll = rollFaceValues[currentBid.faceValue];\n\n         /// one is wildcard and count towards current bid face value. Do that if bid is not on wildcard value.\n         if (currentBid.faceValue != 1) {\n            numBidFaceFaluesInRoll += rollFaceValues[1]; \n         }\n         /// if we don't have atleast the current bid number of dices then bidder is loser\n         if(numBidFaceFaluesInRoll < currentBid.numDice){\n             loser = currentBid.playeradd;\n            //  loserPos = currentBid.playerPos;\n             winnerPlayerPos = turnOfPlayer;\n         }else {\n           loser = playerList[turnOfPlayer];\n           loserPos = turnOfPlayer;\n        //    winnerPlayerPos = currentBid.playerPos;\n         }\n         players[loser].prevNumDice = players[loser].numDice;\n         players[loser].numDice -= 1;\n         numRound +=1;\n\n         if(players[loser].numDice == 0){\n            players[loser].inGame = false;\n            // nullify this player so updateTurn will go to validate player\n            playerList[players[loser].playerPos] == address(0); \n            numActivePlayers -=1;\n            updateTurn();\n         }else {\n             turnOfPlayer = loserPos; //loser still in game he starts the next round\n         }\n         \n    }\n\n    /// @dev function that is called when the game has ended\n    function endGame() internal {\n        uint8 j = 0;\n        address payable winner = playerList[0];\n        for( j = 0; j<playerList.length;j++){\n            if(players[playerList[j]].inGame==true){\n                winner = playerList[j];\n                winningPlayer.playerNo = j+1;\n            }\n        }\n        winningPlayer.playeradd = winner;\n        isGameEnded = 2;\n        uint8 returnamount = numPlayers*1;\n        winner.transfer(returnamount);\n\n    }\n    \n}",
  "sourcePath": "/home/shaik/BC/dapp/contracts/LiarsDice.sol",
  "compiler": {
    "name": "solc",
    "version": "0.5.16+commit.9c3226ce.Emscripten.clang"
  },
  "schemaVersion": "3.2.4",
  "updatedAt": "2020-11-02T09:33:24.089Z",
  "devdoc": {
    "methods": {
      "Bet(uint8,uint8)": {
        "details": "function that is called when a bet is made",
        "params": {
          "faceValue": "is the the value of the face that is called in the bet",
          "numDice": "are the number of Dice that are called in the bet"
        }
      },
      "Challenge()": {
        "details": "function that is called when a challenge is made to a player"
      },
      "DiceShuffle()": {
        "details": "function that is used to shuffle and randomly generate the dice"
      },
      "getRolledDice()": {
        "details": "function that returns either facesreturn or returns a dummy value"
      },
      "initialpay()": {
        "details": "initial payment made by the players"
      },
      "setPD(uint8,uint8)": {
        "details": "function used to set the number of players and number of dice, in addition, shuffles the dice",
        "params": {
          "no_dice": "is the number of dice",
          "no_players": "is the the number of players"
        }
      },
      "setRolledDice()": {
        "details": "function that sets Facesreturn to the appropriate value"
      }
    },
    "title": "Contract for Liars Dice single hand version of the game"
  },
  "userdoc": {
    "methods": {
      "constructor": "Constructor initialize default values"
    }
  }
}