{
  "contractName": "Liars",
  "abi": [
    {
      "inputs": [],
      "payable": false,
      "stateMutability": "nonpayable",
      "type": "constructor"
    },
    {
      "anonymous": false,
      "inputs": [
        {
          "indexed": false,
          "internalType": "uint256",
          "name": "_bidFaceValue",
          "type": "uint256"
        },
        {
          "indexed": false,
          "internalType": "uint8",
          "name": "_bidNumDice",
          "type": "uint8"
        },
        {
          "indexed": false,
          "internalType": "uint8",
          "name": "_newNumDice",
          "type": "uint8"
        },
        {
          "indexed": false,
          "internalType": "uint256",
          "name": "_newFaceValue",
          "type": "uint256"
        }
      ],
      "name": "BidInfo",
      "type": "event"
    },
    {
      "anonymous": false,
      "inputs": [
        {
          "indexed": true,
          "internalType": "address",
          "name": "_from",
          "type": "address"
        },
        {
          "indexed": false,
          "internalType": "uint256",
          "name": "value",
          "type": "uint256"
        }
      ],
      "name": "WithDrewMoney",
      "type": "event"
    },
    {
      "constant": true,
      "inputs": [],
      "name": "isSubmitted",
      "outputs": [
        {
          "internalType": "bool",
          "name": "",
          "type": "bool"
        }
      ],
      "payable": false,
      "stateMutability": "view",
      "type": "function"
    },
    {
      "constant": true,
      "inputs": [],
      "name": "numActivePlayers",
      "outputs": [
        {
          "internalType": "uint8",
          "name": "",
          "type": "uint8"
        }
      ],
      "payable": false,
      "stateMutability": "view",
      "type": "function"
    },
    {
      "constant": true,
      "inputs": [
        {
          "internalType": "uint256",
          "name": "",
          "type": "uint256"
        }
      ],
      "name": "numDiceList",
      "outputs": [
        {
          "internalType": "uint8",
          "name": "",
          "type": "uint8"
        }
      ],
      "payable": false,
      "stateMutability": "view",
      "type": "function"
    },
    {
      "constant": true,
      "inputs": [],
      "name": "numPaid",
      "outputs": [
        {
          "internalType": "uint8",
          "name": "",
          "type": "uint8"
        }
      ],
      "payable": false,
      "stateMutability": "view",
      "type": "function"
    },
    {
      "constant": true,
      "inputs": [],
      "name": "numPlayers",
      "outputs": [
        {
          "internalType": "uint8",
          "name": "",
          "type": "uint8"
        }
      ],
      "payable": false,
      "stateMutability": "view",
      "type": "function"
    },
    {
      "constant": true,
      "inputs": [],
      "name": "numSetDice",
      "outputs": [
        {
          "internalType": "uint8",
          "name": "",
          "type": "uint8"
        }
      ],
      "payable": false,
      "stateMutability": "view",
      "type": "function"
    },
    {
      "constant": true,
      "inputs": [],
      "name": "turnOfPlayer",
      "outputs": [
        {
          "internalType": "uint8",
          "name": "",
          "type": "uint8"
        }
      ],
      "payable": false,
      "stateMutability": "view",
      "type": "function"
    },
    {
      "constant": false,
      "inputs": [
        {
          "internalType": "uint8",
          "name": "no_players",
          "type": "uint8"
        },
        {
          "internalType": "uint8",
          "name": "no_dice",
          "type": "uint8"
        }
      ],
      "name": "setPD",
      "outputs": [],
      "payable": false,
      "stateMutability": "nonpayable",
      "type": "function"
    },
    {
      "constant": false,
      "inputs": [],
      "name": "Challenge",
      "outputs": [],
      "payable": false,
      "stateMutability": "nonpayable",
      "type": "function"
    },
    {
      "constant": false,
      "inputs": [
        {
          "internalType": "uint8",
          "name": "numDice",
          "type": "uint8"
        },
        {
          "internalType": "uint8",
          "name": "faceValue",
          "type": "uint8"
        }
      ],
      "name": "Bet",
      "outputs": [],
      "payable": false,
      "stateMutability": "nonpayable",
      "type": "function"
    },
    {
      "constant": false,
      "inputs": [],
      "name": "DiceShuffle",
      "outputs": [],
      "payable": false,
      "stateMutability": "nonpayable",
      "type": "function"
    },
    {
      "constant": false,
      "inputs": [],
      "name": "setRolledDice",
      "outputs": [],
      "payable": false,
      "stateMutability": "nonpayable",
      "type": "function"
    },
    {
      "constant": true,
      "inputs": [],
      "name": "getRolledDice",
      "outputs": [
        {
          "internalType": "uint256[]",
          "name": "",
          "type": "uint256[]"
        }
      ],
      "payable": false,
      "stateMutability": "view",
      "type": "function"
    },
    {
      "constant": false,
      "inputs": [],
      "name": "initialpay",
      "outputs": [],
      "payable": true,
      "stateMutability": "payable",
      "type": "function"
    }
  ],
  "bytecode": "0x608060405260056000806101000a81548160ff021916908360ff16021790555060008060016101000a81548160ff021916908360ff16021790555060008060026101000a81548161ffff021916908361ffff16021790555033600060046101000a81548173ffffffffffffffffffffffffffffffffffffffff021916908373ffffffffffffffffffffffffffffffffffffffff1602179055506002600060186101000a81548160ff021916908360ff16021790555060008060196101000a81548160ff021916908360ff1602179055506000600260006101000a81548160ff0219169083151502179055506000600260016101000a81548160ff021916908360ff1602179055506000600560006101000a81548160ff021916908360ff16021790555034801561012e57600080fd5b5060008060186101000a81548160ff021916908360ff16021790555060016004819055506000600960006101000a81548160ff0219169083600581111561017157fe5b021790555060006002806101000a81548160ff021916908360ff1602179055506000600660000160006101000a81548160ff021916908360ff1602179055506000600660000160016101000a81548160ff021916908360ff16021790555060ff600560016101000a81548160ff021916908360ff160217905550611558806101fa6000396000f3fe6080604052600436106100dd5760003560e01c8063aa268fd71161007f578063d2b9266911610059578063d2b9266914610289578063e0fdd709146102de578063f76dc4381461030f578063fb882b101461037b576100dd565b8063aa268fd714610237578063b125512e14610241578063cae1bab814610272576100dd565b8063703d45a0116100bb578063703d45a014610175578063741b8790146101c057806397b2f556146101ef578063a0f4a9a914610220576100dd565b80632bdcc167146100e25780632da3db2a146101135780636287140e1461012a575b600080fd5b3480156100ee57600080fd5b506100f76103ac565b604051808260ff1660ff16815260200191505060405180910390f35b34801561011f57600080fd5b506101286103bf565b005b34801561013657600080fd5b506101736004803603604081101561014d57600080fd5b81019080803560ff169060200190929190803560ff169060200190929190505050610602565b005b34801561018157600080fd5b506101be6004803603604081101561019857600080fd5b81019080803560ff169060200190929190803560ff1690602001909291905050506106c4565b005b3480156101cc57600080fd5b506101d5610771565b604051808215151515815260200191505060405180910390f35b3480156101fb57600080fd5b50610204610784565b604051808260ff1660ff16815260200191505060405180910390f35b34801561022c57600080fd5b50610235610797565b005b61023f610d3d565b005b34801561024d57600080fd5b50610256611262565b604051808260ff1660ff16815260200191505060405180910390f35b34801561027e57600080fd5b50610287611274565b005b34801561029557600080fd5b506102c2600480360360208110156102ac57600080fd5b81019080803590602001909291905050506112c9565b604051808260ff1660ff16815260200191505060405180910390f35b3480156102ea57600080fd5b506102f36112fa565b604051808260ff1660ff16815260200191505060405180910390f35b34801561031b57600080fd5b5061032461130c565b6040518080602001828103825283818151815260200191508051906020019060200280838360005b8381101561036757808201518184015260208101905061034c565b505050509050019250505060405180910390f35b34801561038757600080fd5b50610390611364565b604051808260ff1660ff16815260200191505060405180910390f35b600060019054906101000a900460ff1681565b6000809050600090505b6007805490508160ff1610156105ff576000809050600090505b6000809054906101000a900460ff1660ff168160ff1610156105f1576008600060078460ff168154811061041357fe5b9060005260206000200160009054906101000a900473ffffffffffffffffffffffffffffffffffffffff1673ffffffffffffffffffffffffffffffffffffffff1673ffffffffffffffffffffffffffffffffffffffff16815260200190815260200160002060000160029054906101000a900460ff1660ff168160ff1611156105355760ff6008600060078560ff16815481106104ac57fe5b9060005260206000200160009054906101000a900473ffffffffffffffffffffffffffffffffffffffff1673ffffffffffffffffffffffffffffffffffffffff1673ffffffffffffffffffffffffffffffffffffffff1681526020019081526020016000206002018260ff168154811061052257fe5b90600052602060002001819055506105e4565b6001600661054233611377565b8161054957fe5b06016008600060078560ff168154811061055f57fe5b9060005260206000200160009054906101000a900473ffffffffffffffffffffffffffffffffffffffff1673ffffffffffffffffffffffffffffffffffffffff1673ffffffffffffffffffffffffffffffffffffffff1681526020019081526020016000206002018260ff16815481106105d557fe5b90600052602060002001819055505b80806001019150506103e3565b5080806001019150506103c9565b50565b81600060186101000a81548160ff021916908360ff160217905550806000806101000a81548160ff021916908360ff1602179055506001600260006101000a81548160ff0219169083151502179055506000809050600090505b8260ff168160ff1610156106bf57600182908060018154018082558091505090600182039060005260206000209060209182820401919006909192909190916101000a81548160ff021916908360ff16021790555050808060010191505061065c565b505050565b81600660000160016101000a81548160ff021916908360ff16021790555080600660000160006101000a81548160ff021916908360ff160217905550600860003373ffffffffffffffffffffffffffffffffffffffff1673ffffffffffffffffffffffffffffffffffffffff16815260200190815260200160002060000160049054906101000a900460ff16600660000160026101000a81548160ff021916908360ff1602179055505050565b600260009054906101000a900460ff1681565b600060189054906101000a900460ff1681565b60006007600660000160029054906101000a900460ff1660ff16815481106107bb57fe5b9060005260206000200160009054906101000a900473ffffffffffffffffffffffffffffffffffffffff169050600080905060008090506000600660000160009054906101000a900460ff169050600092505b6007805490508360ff161015610973576000809050600090505b6008600060078660ff168154811061083c57fe5b9060005260206000200160009054906101000a900473ffffffffffffffffffffffffffffffffffffffff1673ffffffffffffffffffffffffffffffffffffffff1673ffffffffffffffffffffffffffffffffffffffff168152602001908152602001600020600201805490508160ff161015610965578160ff166008600060078760ff16815481106108ca57fe5b9060005260206000200160009054906101000a900473ffffffffffffffffffffffffffffffffffffffff1673ffffffffffffffffffffffffffffffffffffffff1673ffffffffffffffffffffffffffffffffffffffff1681526020019081526020016000206002018260ff168154811061094057fe5b90600052602060002001541415610958576001830192505b8080600101915050610828565b50828060010193505061080e565b600660000160019054906101000a900460ff1660ff168261ffff1610610b6757600860003373ffffffffffffffffffffffffffffffffffffffff1673ffffffffffffffffffffffffffffffffffffffff16815260200190815260200160002060000160029054906101000a900460ff16600860003373ffffffffffffffffffffffffffffffffffffffff1673ffffffffffffffffffffffffffffffffffffffff16815260200190815260200160002060000160036101000a81548160ff021916908360ff1602179055506001600860003373ffffffffffffffffffffffffffffffffffffffff1673ffffffffffffffffffffffffffffffffffffffff16815260200190815260200160002060000160028282829054906101000a900460ff160392506101000a81548160ff021916908360ff1602179055506000600860003373ffffffffffffffffffffffffffffffffffffffff1673ffffffffffffffffffffffffffffffffffffffff16815260200190815260200160002060000160029054906101000a900460ff1660ff161415610b62576000600860003373ffffffffffffffffffffffffffffffffffffffff1673ffffffffffffffffffffffffffffffffffffffff16815260200190815260200160002060000160016101000a81548160ff0219169083151502179055505b610d37565b600860008573ffffffffffffffffffffffffffffffffffffffff1673ffffffffffffffffffffffffffffffffffffffff16815260200190815260200160002060000160029054906101000a900460ff16600860008673ffffffffffffffffffffffffffffffffffffffff1673ffffffffffffffffffffffffffffffffffffffff16815260200190815260200160002060000160036101000a81548160ff021916908360ff1602179055506001600860008673ffffffffffffffffffffffffffffffffffffffff1673ffffffffffffffffffffffffffffffffffffffff16815260200190815260200160002060000160028282829054906101000a900460ff160392506101000a81548160ff021916908360ff1602179055506000600860008673ffffffffffffffffffffffffffffffffffffffff1673ffffffffffffffffffffffffffffffffffffffff16815260200190815260200160002060000160029054906101000a900460ff1660ff161415610d36576000600860008673ffffffffffffffffffffffffffffffffffffffff1673ffffffffffffffffffffffffffffffffffffffff16815260200190815260200160002060000160016101000a81548160ff0219169083151502179055505b5b50505050565b60001515600860003373ffffffffffffffffffffffffffffffffffffffff1673ffffffffffffffffffffffffffffffffffffffff16815260200190815260200160002060000160009054906101000a900460ff16151514610e06576040517f08c379a00000000000000000000000000000000000000000000000000000000081526004018080602001828103825260178152602001807f416c7265616479206a6f696e6564207468652067616d6500000000000000000081525060200191505060405180910390fd5b600454341015610e61576040517f08c379a00000000000000000000000000000000000000000000000000000000081526004018080602001828103825260228152602001806115026022913960400191505060405180910390fd5b60073390806001815401808255809150509060018203906000526020600020016000909192909190916101000a81548173ffffffffffffffffffffffffffffffffffffffff021916908373ffffffffffffffffffffffffffffffffffffffff160217905550506001600860003373ffffffffffffffffffffffffffffffffffffffff1673ffffffffffffffffffffffffffffffffffffffff16815260200190815260200160002060000160006101000a81548160ff0219169083151502179055506001600860003373ffffffffffffffffffffffffffffffffffffffff1673ffffffffffffffffffffffffffffffffffffffff16815260200190815260200160002060000160016101000a81548160ff0219169083151502179055506000809054906101000a900460ff16600860003373ffffffffffffffffffffffffffffffffffffffff1673ffffffffffffffffffffffffffffffffffffffff16815260200190815260200160002060000160026101000a81548160ff021916908360ff1602179055506000809054906101000a900460ff16600860003373ffffffffffffffffffffffffffffffffffffffff1673ffffffffffffffffffffffffffffffffffffffff16815260200190815260200160002060000160036101000a81548160ff021916908360ff1602179055506000600860003373ffffffffffffffffffffffffffffffffffffffff1673ffffffffffffffffffffffffffffffffffffffff168152602001908152602001600020600201805490501415611135576000809054906101000a900460ff1660ff166040519080825280602002602001820160405280156110dd5781602001602082028038833980820191505090505b50600860003373ffffffffffffffffffffffffffffffffffffffff1673ffffffffffffffffffffffffffffffffffffffff168152602001908152602001600020600201908051906020019061113392919061143d565b505b600160078054905003600860003373ffffffffffffffffffffffffffffffffffffffff1673ffffffffffffffffffffffffffffffffffffffff16815260200190815260200160002060000160046101000a81548160ff021916908360ff1602179055506001600060198282829054906101000a900460ff160192506101000a81548160ff021916908360ff16021790555060045434111561121c576004543403600860003373ffffffffffffffffffffffffffffffffffffffff1673ffffffffffffffffffffffffffffffffffffffff168152602001908152602001600020600101819055505b600060189054906101000a900460ff1660ff166007805490501415611260576001600960006101000a81548160ff0219169083600581111561125a57fe5b02179055505b565b6002809054906101000a900460ff1681565b600860003373ffffffffffffffffffffffffffffffffffffffff1673ffffffffffffffffffffffffffffffffffffffff16815260200190815260200160002060020160039080546112c692919061148a565b50565b600181815481106112d657fe5b9060005260206000209060209182820401919006915054906101000a900460ff1681565b6000809054906101000a900460ff1681565b6060600380548060200260200160405190810160405280929190818152602001828054801561135a57602002820191906000526020600020905b815481526020019060010190808311611346575b5050505050905090565b600060199054906101000a900460ff1681565b60006001600060028282829054906101000a900461ffff160192506101000a81548161ffff021916908361ffff1602179055504442600060029054906101000a900461ffff1684604051602001808581526020018481526020018361ffff1661ffff1660f01b81526002018273ffffffffffffffffffffffffffffffffffffffff1673ffffffffffffffffffffffffffffffffffffffff1660601b81526014019450505050506040516020818303038152906040528051906020012060001c9050919050565b828054828255906000526020600020908101928215611479579160200282015b8281111561147857825182559160200191906001019061145d565b5b50905061148691906114dc565b5090565b8280548282559060005260206000209081019282156114cb5760005260206000209182015b828111156114ca5782548255916001019190600101906114af565b5b5090506114d891906114dc565b5090565b6114fe91905b808211156114fa5760008160009055506001016114e2565b5090565b9056fe4e6f7420656e6f756768206d6f6e65792073656e7420746f206a6f696e2067616d65a265627a7a7231582060f3e5629aa2059b68d902196dbbeafb82639adf8ccd13b208cfdcc3a9c4dd9464736f6c63430005100032",
  "source": "// SPDX-License-Identifier: MIT\npragma solidity >=0.4.22 <0.8.0;\n\n/// @title Contract for Liars Dice single hand version of the game\n\ncontract Liars {\n\n    /// @dev number of dice given initially per player\n    uint8 public numSetDice = 5;\n    uint8 public numPaid = 0;\n    uint16 ninfi = 0;\n    enum Stages\n    {\n        initial,\n        roll,\n        bid,\n        bid_challenge,\n        challenge,\n        endGame\n    }\n\n\n    /// @dev player bids by specifying the face value  and the number of dice with that face  value\n    struct bidInfo {\n        uint8 faceValue;\n        uint8 numDice;\n        uint8 playerPos;\n    }\n\n    /// @dev  exists: used to see if player joined the game status will be true till he withdraws any balance owed to him\n    /// @dev  inGame: used to see if player lost all his dice and out of the game\n    /// @dev  numDice: number of dice player currently posses\n    /// @dev  balance: player account balance in wei\n    /// @dev  concealedRollFaces: player's roll face values in current round for each of his dice as hash(before challenged)\n    /// @dev  revealedRollFaces: player's roll face values in current round for each of his dice(after challenge)\n  \n    struct PlayerInfo {\n         bool exists;\n         bool inGame;\n         uint8 numDice;\n         uint8 prevNumDice;\n         uint8 playerPos;    \n         uint256 balance; \n         uint256 [] RollFaces;\n    }\n\n    /// @dev All the money from will be tranfered to this account.\n    address payable deployer = msg.sender;\n\n    /// @dev number of players that need to be join to start the game\n    uint8 public numPlayers =2;\n\n    /// @dev number of players that are still in the game\n    uint8 public numActivePlayers = 0;\n\n    uint8[] public numDiceList;\n\n    bool public isSubmitted = false;\n\n    /// @dev current round number\n    uint8  numRound=0;\n    uint8 public turnOfPlayer;\n\n    uint256[] Facesreturn;\n    /// @dev the amount each player has to pay to play the game.\n    uint256  gameCost;\n\n    uint8 callCount=0;\n    /// @dev Front end app shows this by concatenating with string player (instead of address show as player 1, player 2 etc)\n    uint8  winnerPlayerPos;\n    bidInfo currentBid;\n\n    /// @dev players list player at pos 0 will strat the first bid and turns go in clock wise direction.\n    address [] playerList;\n\n    /// @dev Info associated with players for all players \n    mapping(address => PlayerInfo) players;\n\n    /// @dev Current stage of the game, fron end apps should call appropriate functions based on stage and display \n    /// relavent info to players like showing other players dice after challenge, Ask users to roll, bid/challenge\n    /// (in addition to getting the turn info)\n    Stages stage;\n\n\n    /// @dev stores the number of dice with that face value, updated after getting unHashed face value from each player\n    mapping(uint256 => uint8)rollFaceValues;\n\n    event WithDrewMoney(\n        address indexed _from,\n        uint256 value\n\n    );\n\n     event BidInfo(\n        uint256 _bidFaceValue,\n        uint8 _bidNumDice,\n        uint8 _newNumDice,\n        uint256 _newFaceValue\n    );\n\n   \n    /// @notice Constructor initialize default values\n    constructor ()  public {\n        numPlayers = 0;\n        gameCost = 1;\n\n        stage = Stages.initial;\n        turnOfPlayer = 0;\n        currentBid.faceValue = 0;\n        currentBid.numDice = 0;\n        winnerPlayerPos = 255;\n\n    }\n\n    function setPD(uint8 no_players, uint8 no_dice) public {\n        numPlayers = no_players;\n        numSetDice = no_dice;\n        isSubmitted = true;\n         uint8 j = 0;\n        for(j=0;j<no_players;j++){\n            numDiceList.push(no_dice);\n        }\n    }\n\n    function updateTurn()  internal returns(uint8) {\n        if( numActivePlayers == 1){\n            turnOfPlayer = 255;\n            return turnOfPlayer;\n        }\n        uint8 origTurn = turnOfPlayer;\n        turnOfPlayer += 1;\n        if(turnOfPlayer >= numPlayers){\n           turnOfPlayer = 0; \n        }\n        if(turnOfPlayer == origTurn){\n           turnOfPlayer = 255; \n        }\n        while(playerList[turnOfPlayer] == address(0)){\n            turnOfPlayer += 1;\n\n            if (turnOfPlayer >= numPlayers){\n                turnOfPlayer = 0;\n            }\n            if(turnOfPlayer == origTurn){\n               turnOfPlayer = 255; \n               break;\n            }\n        }\n        \n        return turnOfPlayer;\n    }\n    function random(address sender) private returns(uint){\n        ninfi += 1;\n        return uint(keccak256(abi.encodePacked(block.difficulty, block.timestamp,ninfi,sender)));\n    }\n\n    function Challenge() public {\n        address challengedplayer = playerList[currentBid.playerPos];\n        uint8 j = 0;\n        uint16 facecount = 0;\n        uint8 face = currentBid.faceValue;\n        for( j =0; j<playerList.length; j++){\n            uint8 i = 0;\n            for(i = 0; i<players[playerList[j]].RollFaces.length; i++){\n                if(players[playerList[j]].RollFaces[i]==face)\n                    facecount += 1;\n            }\n        }\n        if(facecount >= currentBid.numDice){\n            players[msg.sender].prevNumDice = players[msg.sender].numDice;\n            players[msg.sender].numDice -= 1; \n            if(players[msg.sender].numDice == 0){\n                players[msg.sender].inGame = false;\n            }\n        }\n        else{\n            players[challengedplayer].prevNumDice = players[challengedplayer].numDice;\n            players[challengedplayer].numDice -= 1; \n            if(players[challengedplayer].numDice == 0){\n                players[challengedplayer].inGame = false;\n            }\n        }\n\n    }\n    function Bet(uint8 numDice, uint8 faceValue) public {\n        currentBid.numDice = numDice;\n        currentBid.faceValue = faceValue;\n        currentBid.playerPos = players[msg.sender].playerPos;\n    }\n\n    function DiceShuffle() public {\n        uint8 j = 0;\n        for( j = 0; j<playerList.length;j++){\n            uint8 i = 0;\n            for(i = 0; i < numSetDice; i++){\n                if(i>players[playerList[j]].numDice){\n                    players[playerList[j]].RollFaces[i] = 255 ;\n                }\n                else{\n                    players[playerList[j]].RollFaces[i] = (random(msg.sender)%6)+1; //Random Generator\n                }\n            }\n        }\n    }\n    function setRolledDice() public {\n        Facesreturn = players[msg.sender].RollFaces;\n    }\n    function getRolledDice() public view returns(uint256 [] memory) {\n        return Facesreturn;\n    }\n\n    function initialpay() public payable {\n        require(players[msg.sender].exists == false, \"Already joined the game\");\n        require(msg.value >= gameCost, \"Not enough money sent to join game\");\n        playerList.push(msg.sender);\n        players[msg.sender].exists = true;\n        players[msg.sender].inGame = true;\n        players[msg.sender].numDice = numSetDice;\n        players[msg.sender].prevNumDice = numSetDice;\n\n        if (players[msg.sender].RollFaces.length == 0){\n            players[msg.sender].RollFaces = new uint256 [](numSetDice);\n        }\n        players[msg.sender].playerPos = (uint8)(playerList.length) -1;\n        numActivePlayers +=1;\n\n        if(msg.value > gameCost) {\n            players[msg.sender].balance = msg.value - gameCost;\n        }\n        if(playerList.length == numPlayers){\n            stage = Stages.roll;\n        }\n    }\n\n    function applyGameRules() internal {\n         address loser;\n         uint8 loserPos;\n         uint8 numBidFaceFaluesInRoll = rollFaceValues[currentBid.faceValue];\n\n         /// one is wildcard and count towards current bid face value. Do that if bid is not on wildcard value.\n         if (currentBid.faceValue != 1) {\n            numBidFaceFaluesInRoll += rollFaceValues[1]; \n         }\n         /// if we don't have atleast the current bid number of dices then bidder is loser\n         if(numBidFaceFaluesInRoll < currentBid.numDice){\n             loser = playerList[currentBid.playerPos];\n             loserPos = currentBid.playerPos;\n             winnerPlayerPos = turnOfPlayer;\n         }else {\n           loser = playerList[turnOfPlayer];\n           loserPos = turnOfPlayer;\n           winnerPlayerPos = currentBid.playerPos;\n         }\n         players[loser].prevNumDice = players[loser].numDice;\n         players[loser].numDice -= 1;\n         numRound +=1;\n\n         if(players[loser].numDice == 0){\n            players[loser].inGame = false;\n            // nullify this player so updateTurn will go to validate player\n            playerList[players[loser].playerPos] == address(0); \n            numActivePlayers -=1;\n            updateTurn();\n         }else {\n             turnOfPlayer = loserPos; //loser still in game he starts the next round\n         }\n         \n    }\n    \n}",
  "sourcePath": "/home/shaik/Desktop/Tut/web3.0-tutorial-truffle/contracts/LiarsDice.sol",
  "compiler": {
    "name": "solc",
    "version": "0.5.16+commit.9c3226ce.Emscripten.clang"
  },
  "schemaVersion": "3.2.4",
  "updatedAt": "2020-10-12T14:05:44.459Z",
  "devdoc": {
    "methods": {},
    "title": "Contract for Liars Dice single hand version of the game"
  },
  "userdoc": {
    "methods": {
      "constructor": "Constructor initialize default values"
    }
  }
}